{"abi":[{"type":"function","name":"decodeVersionedNonce","inputs":[{"name":"nonce","type":"uint256","internalType":"uint256"}],"outputs":[{"name":"","type":"uint256","internalType":"uint256"},{"name":"","type":"uint256","internalType":"uint256"}],"stateMutability":"nonpayable"},{"type":"function","name":"encodeCrossDomainMessage","inputs":[{"name":"_nonce","type":"uint256","internalType":"uint256"},{"name":"_sender","type":"address","internalType":"address"},{"name":"_target","type":"address","internalType":"address"},{"name":"_value","type":"uint256","internalType":"uint256"},{"name":"_gasLimit","type":"uint256","internalType":"uint256"},{"name":"_data","type":"bytes","internalType":"bytes"}],"outputs":[{"name":"","type":"bytes","internalType":"bytes"}],"stateMutability":"nonpayable"},{"type":"function","name":"encodeDepositTransaction","inputs":[{"name":"txn","type":"tuple","internalType":"struct Types.UserDepositTransaction","components":[{"name":"from","type":"address","internalType":"address"},{"name":"to","type":"address","internalType":"address"},{"name":"isCreation","type":"bool","internalType":"bool"},{"name":"value","type":"uint256","internalType":"uint256"},{"name":"mint","type":"uint256","internalType":"uint256"},{"name":"gasLimit","type":"uint64","internalType":"uint64"},{"name":"data","type":"bytes","internalType":"bytes"},{"name":"l1BlockHash","type":"bytes32","internalType":"bytes32"},{"name":"logIndex","type":"uint256","internalType":"uint256"}]}],"outputs":[{"name":"","type":"bytes","internalType":"bytes"}],"stateMutability":"nonpayable"},{"type":"function","name":"getCannonMemoryProof","inputs":[{"name":"pc","type":"uint32","internalType":"uint32"},{"name":"insn","type":"uint32","internalType":"uint32"},{"name":"memAddr","type":"uint32","internalType":"uint32"},{"name":"memVal","type":"uint32","internalType":"uint32"}],"outputs":[{"name":"","type":"bytes32","internalType":"bytes32"},{"name":"","type":"bytes","internalType":"bytes"}],"stateMutability":"nonpayable"},{"type":"function","name":"getCannonMemoryProof","inputs":[{"name":"pc","type":"uint32","internalType":"uint32"},{"name":"insn","type":"uint32","internalType":"uint32"}],"outputs":[{"name":"","type":"bytes32","internalType":"bytes32"},{"name":"","type":"bytes","internalType":"bytes"}],"stateMutability":"nonpayable"},{"type":"function","name":"getMerkleTrieFuzzCase","inputs":[{"name":"variant","type":"string","internalType":"string"}],"outputs":[{"name":"","type":"bytes32","internalType":"bytes32"},{"name":"","type":"bytes","internalType":"bytes"},{"name":"","type":"bytes","internalType":"bytes"},{"name":"","type":"bytes[]","internalType":"bytes[]"}],"stateMutability":"nonpayable"},{"type":"function","name":"getProveWithdrawalTransactionInputs","inputs":[{"name":"_tx","type":"tuple","internalType":"struct Types.WithdrawalTransaction","components":[{"name":"nonce","type":"uint256","internalType":"uint256"},{"name":"sender","type":"address","internalType":"address"},{"name":"target","type":"address","internalType":"address"},{"name":"value","type":"uint256","internalType":"uint256"},{"name":"gasLimit","type":"uint256","internalType":"uint256"},{"name":"data","type":"bytes","internalType":"bytes"}]}],"outputs":[{"name":"","type":"bytes32","internalType":"bytes32"},{"name":"","type":"bytes32","internalType":"bytes32"},{"name":"","type":"bytes32","internalType":"bytes32"},{"name":"","type":"bytes32","internalType":"bytes32"},{"name":"","type":"bytes[]","internalType":"bytes[]"}],"stateMutability":"nonpayable"},{"type":"function","name":"hashCrossDomainMessage","inputs":[{"name":"_nonce","type":"uint256","internalType":"uint256"},{"name":"_sender","type":"address","internalType":"address"},{"name":"_target","type":"address","internalType":"address"},{"name":"_value","type":"uint256","internalType":"uint256"},{"name":"_gasLimit","type":"uint256","internalType":"uint256"},{"name":"_data","type":"bytes","internalType":"bytes"}],"outputs":[{"name":"","type":"bytes32","internalType":"bytes32"}],"stateMutability":"nonpayable"},{"type":"function","name":"hashDepositTransaction","inputs":[{"name":"_from","type":"address","internalType":"address"},{"name":"_to","type":"address","internalType":"address"},{"name":"_mint","type":"uint256","internalType":"uint256"},{"name":"_value","type":"uint256","internalType":"uint256"},{"name":"_gas","type":"uint64","internalType":"uint64"},{"name":"_data","type":"bytes","internalType":"bytes"},{"name":"_logIndex","type":"uint64","internalType":"uint64"}],"outputs":[{"name":"","type":"bytes32","internalType":"bytes32"}],"stateMutability":"nonpayable"},{"type":"function","name":"hashOutputRootProof","inputs":[{"name":"_version","type":"bytes32","internalType":"bytes32"},{"name":"_stateRoot","type":"bytes32","internalType":"bytes32"},{"name":"_messagePasserStorageRoot","type":"bytes32","internalType":"bytes32"},{"name":"_latestBlockhash","type":"bytes32","internalType":"bytes32"}],"outputs":[{"name":"","type":"bytes32","internalType":"bytes32"}],"stateMutability":"nonpayable"},{"type":"function","name":"hashWithdrawal","inputs":[{"name":"_nonce","type":"uint256","internalType":"uint256"},{"name":"_sender","type":"address","internalType":"address"},{"name":"_target","type":"address","internalType":"address"},{"name":"_value","type":"uint256","internalType":"uint256"},{"name":"_gasLimit","type":"uint256","internalType":"uint256"},{"name":"_data","type":"bytes","internalType":"bytes"}],"outputs":[{"name":"","type":"bytes32","internalType":"bytes32"}],"stateMutability":"nonpayable"}],"bytecode":{"object":"0x608060405234801561001057600080fd5b50614986806100206000396000f3fe608060405234801561001057600080fd5b50600436106100c85760003560e01c80637f26c48c11610081578063c21e88651161005b578063c21e8865146101c9578063dcf5edef146101dc578063fc677392146101ef57600080fd5b80637f26c48c1461018257806383dbaa03146101a35780638ccece97146101b657600080fd5b8063498a3c02116100b2578063498a3c0214610117578063526dc955146101375780637e577a1b1461015f57600080fd5b8062ec31a6146100cd5780631aac97c1146100f3575b600080fd5b6100e06100db366004613ee1565b610202565b6040519081526020015b60405180910390f35b610106610101366004613f5b565b610908565b6040516100ea9594939291906140d7565b61012a610125366004613ee1565b611036565b6040516100ea9190614102565b61014a610145366004614115565b611730565b604080519283526020830191909152016100ea565b61017261016d36600461412e565b611a05565b6040516100ea9493929190614177565b6101956101903660046141ca565b611bdc565b6040516100ea92919061421e565b6101956101b1366004614237565b612137565b6100e06101c4366004614282565b6124ed565b6100e06101d7366004613ee1565b612d0a565b6100e06101ea366004614315565b612e2e565b61012a6101fd366004614347565b6130d2565b6040805160098082526101408201909252600091829190816020015b606081526020019060019003908161021e5790505090506040518060400160405280601581526020017f736372697074732f676f2d6666692f676f2d66666900000000000000000000008152508160008151811061027e5761027e614383565b60200260200101819052506040518060400160405280600481526020017f6469666600000000000000000000000000000000000000000000000000000000815250816001815181106102d2576102d2614383565b60200260200101819052506040518060400160405280601681526020017f6861736843726f7373446f6d61696e4d657373616765000000000000000000008152508160028151811061032657610326614383565b60209081029190910101526040517f6900a3ae00000000000000000000000000000000000000000000000000000000815260048101899052737109709ecfa91a80626ff3989d68f67f5b1dd12d90636900a3ae90602401600060405180830381865afa15801561039a573d6000803e3d6000fd5b505050506040513d6000823e601f3d9081017fffffffffffffffffffffffffffffffffffffffffffffffffffffffffffffffe01682016040526103e091908101906143e2565b816003815181106103f3576103f3614383565b60209081029190910101526040517f56ca623e00000000000000000000000000000000000000000000000000000000815273ffffffffffffffffffffffffffffffffffffffff88166004820152737109709ecfa91a80626ff3989d68f67f5b1dd12d906356ca623e90602401600060405180830381865afa15801561047c573d6000803e3d6000fd5b505050506040513d6000823e601f3d9081017fffffffffffffffffffffffffffffffffffffffffffffffffffffffffffffffe01682016040526104c291908101906143e2565b816004815181106104d5576104d5614383565b60209081029190910101526040517f56ca623e00000000000000000000000000000000000000000000000000000000815273ffffffffffffffffffffffffffffffffffffffff87166004820152737109709ecfa91a80626ff3989d68f67f5b1dd12d906356ca623e90602401600060405180830381865afa15801561055e573d6000803e3d6000fd5b505050506040513d6000823e601f3d9081017fffffffffffffffffffffffffffffffffffffffffffffffffffffffffffffffe01682016040526105a491908101906143e2565b816005815181106105b7576105b7614383565b60209081029190910101526040517f6900a3ae00000000000000000000000000000000000000000000000000000000815260048101869052737109709ecfa91a80626ff3989d68f67f5b1dd12d90636900a3ae90602401600060405180830381865afa15801561062b573d6000803e3d6000fd5b505050506040513d6000823e601f3d9081017fffffffffffffffffffffffffffffffffffffffffffffffffffffffffffffffe016820160405261067191908101906143e2565b8160068151811061068457610684614383565b60209081029190910101526040517f6900a3ae00000000000000000000000000000000000000000000000000000000815260048101859052737109709ecfa91a80626ff3989d68f67f5b1dd12d90636900a3ae90602401600060405180830381865afa1580156106f8573d6000803e3d6000fd5b505050506040513d6000823e601f3d9081017fffffffffffffffffffffffffffffffffffffffffffffffffffffffffffffffe016820160405261073e91908101906143e2565b8160078151811061075157610751614383565b60209081029190910101526040517f71aad10d000000000000000000000000000000000000000000000000000000008152737109709ecfa91a80626ff3989d68f67f5b1dd12d906371aad10d906107ac908690600401614102565b600060405180830381865afa1580156107c9573d6000803e3d6000fd5b505050506040513d6000823e601f3d9081017fffffffffffffffffffffffffffffffffffffffffffffffffffffffffffffffe016820160405261080f91908101906143e2565b8160088151811061082257610822614383565b60209081029190910101526040517f89160467000000000000000000000000000000000000000000000000000000008152600090737109709ecfa91a80626ff3989d68f67f5b1dd12d9063891604679061088090859060040161442b565b6000604051808303816000875af115801561089f573d6000803e3d6000fd5b505050506040513d6000823e601f3d9081017fffffffffffffffffffffffffffffffffffffffffffffffffffffffffffffffe01682016040526108e591908101906144cb565b9050808060200190518101906108fb9190614500565b9998505050505050505050565b6000808080606081600960405190808252806020026020018201604052801561094557816020015b60608152602001906001900390816109305790505b5090506040518060400160405280601581526020017f736372697074732f676f2d6666692f676f2d66666900000000000000000000008152508160008151811061099157610991614383565b60200260200101819052506040518060400160405280600481526020017f6469666600000000000000000000000000000000000000000000000000000000815250816001815181106109e5576109e5614383565b60200260200101819052506040518060600160405280602381526020016149576023913981600281518110610a1c57610a1c614383565b602090810291909101015286516040517f6900a3ae0000000000000000000000000000000000000000000000000000000081526004810191909152737109709ecfa91a80626ff3989d68f67f5b1dd12d90636900a3ae90602401600060405180830381865afa158015610a93573d6000803e3d6000fd5b505050506040513d6000823e601f3d9081017fffffffffffffffffffffffffffffffffffffffffffffffffffffffffffffffe0168201604052610ad991908101906143e2565b81600381518110610aec57610aec614383565b6020908102919091018101919091528701516040517f56ca623e00000000000000000000000000000000000000000000000000000000815273ffffffffffffffffffffffffffffffffffffffff9091166004820152737109709ecfa91a80626ff3989d68f67f5b1dd12d906356ca623e90602401600060405180830381865afa158015610b7d573d6000803e3d6000fd5b505050506040513d6000823e601f3d9081017fffffffffffffffffffffffffffffffffffffffffffffffffffffffffffffffe0168201604052610bc391908101906143e2565b81600481518110610bd657610bd6614383565b602090810291909101015260408781015190517f56ca623e00000000000000000000000000000000000000000000000000000000815273ffffffffffffffffffffffffffffffffffffffff9091166004820152737109709ecfa91a80626ff3989d68f67f5b1dd12d906356ca623e90602401600060405180830381865afa158015610c65573d6000803e3d6000fd5b505050506040513d6000823e601f3d9081017fffffffffffffffffffffffffffffffffffffffffffffffffffffffffffffffe0168201604052610cab91908101906143e2565b81600581518110610cbe57610cbe614383565b602090810291909101015260608701516040517f6900a3ae0000000000000000000000000000000000000000000000000000000081526004810191909152737109709ecfa91a80626ff3989d68f67f5b1dd12d90636900a3ae90602401600060405180830381865afa158015610d38573d6000803e3d6000fd5b505050506040513d6000823e601f3d9081017fffffffffffffffffffffffffffffffffffffffffffffffffffffffffffffffe0168201604052610d7e91908101906143e2565b81600681518110610d9157610d91614383565b602090810291909101015260808701516040517f6900a3ae0000000000000000000000000000000000000000000000000000000081526004810191909152737109709ecfa91a80626ff3989d68f67f5b1dd12d90636900a3ae90602401600060405180830381865afa158015610e0b573d6000803e3d6000fd5b505050506040513d6000823e601f3d9081017fffffffffffffffffffffffffffffffffffffffffffffffffffffffffffffffe0168201604052610e5191908101906143e2565b81600781518110610e6457610e64614383565b602090810291909101015260a08701516040517f71aad10d000000000000000000000000000000000000000000000000000000008152737109709ecfa91a80626ff3989d68f67f5b1dd12d916371aad10d91610ec39190600401614102565b600060405180830381865afa158015610ee0573d6000803e3d6000fd5b505050506040513d6000823e601f3d9081017fffffffffffffffffffffffffffffffffffffffffffffffffffffffffffffffe0168201604052610f2691908101906143e2565b81600881518110610f3957610f39614383565b60209081029190910101526040517f89160467000000000000000000000000000000000000000000000000000000008152600090737109709ecfa91a80626ff3989d68f67f5b1dd12d90638916046790610f9790859060040161442b565b6000604051808303816000875af1158015610fb6573d6000803e3d6000fd5b505050506040513d6000823e601f3d9081017fffffffffffffffffffffffffffffffffffffffffffffffffffffffffffffffe0168201604052610ffc91908101906144cb565b905060008060008060008580602001905181019061101a91906145b8565b939f50919d509b50995097505050505050505091939590929450565b604080516009808252610140820190925260609160009190816020015b60608152602001906001900390816110535790505090506040518060400160405280601581526020017f736372697074732f676f2d6666692f676f2d6666690000000000000000000000815250816000815181106110b3576110b3614383565b60200260200101819052506040518060400160405280600481526020017f64696666000000000000000000000000000000000000000000000000000000008152508160018151811061110757611107614383565b60200260200101819052506040518060400160405280601881526020017f656e636f646543726f7373446f6d61696e4d65737361676500000000000000008152508160028151811061115b5761115b614383565b60209081029190910101526040517f6900a3ae00000000000000000000000000000000000000000000000000000000815260048101899052737109709ecfa91a80626ff3989d68f67f5b1dd12d90636900a3ae90602401600060405180830381865afa1580156111cf573d6000803e3d6000fd5b505050506040513d6000823e601f3d9081017fffffffffffffffffffffffffffffffffffffffffffffffffffffffffffffffe016820160405261121591908101906143e2565b8160038151811061122857611228614383565b60209081029190910101526040517f56ca623e00000000000000000000000000000000000000000000000000000000815273ffffffffffffffffffffffffffffffffffffffff88166004820152737109709ecfa91a80626ff3989d68f67f5b1dd12d906356ca623e90602401600060405180830381865afa1580156112b1573d6000803e3d6000fd5b505050506040513d6000823e601f3d9081017fffffffffffffffffffffffffffffffffffffffffffffffffffffffffffffffe01682016040526112f791908101906143e2565b8160048151811061130a5761130a614383565b60209081029190910101526040517f56ca623e00000000000000000000000000000000000000000000000000000000815273ffffffffffffffffffffffffffffffffffffffff87166004820152737109709ecfa91a80626ff3989d68f67f5b1dd12d906356ca623e90602401600060405180830381865afa158015611393573d6000803e3d6000fd5b505050506040513d6000823e601f3d9081017fffffffffffffffffffffffffffffffffffffffffffffffffffffffffffffffe01682016040526113d991908101906143e2565b816005815181106113ec576113ec614383565b60209081029190910101526040517f6900a3ae00000000000000000000000000000000000000000000000000000000815260048101869052737109709ecfa91a80626ff3989d68f67f5b1dd12d90636900a3ae90602401600060405180830381865afa158015611460573d6000803e3d6000fd5b505050506040513d6000823e601f3d9081017fffffffffffffffffffffffffffffffffffffffffffffffffffffffffffffffe01682016040526114a691908101906143e2565b816006815181106114b9576114b9614383565b60209081029190910101526040517f6900a3ae00000000000000000000000000000000000000000000000000000000815260048101859052737109709ecfa91a80626ff3989d68f67f5b1dd12d90636900a3ae90602401600060405180830381865afa15801561152d573d6000803e3d6000fd5b505050506040513d6000823e601f3d9081017fffffffffffffffffffffffffffffffffffffffffffffffffffffffffffffffe016820160405261157391908101906143e2565b8160078151811061158657611586614383565b60209081029190910101526040517f71aad10d000000000000000000000000000000000000000000000000000000008152737109709ecfa91a80626ff3989d68f67f5b1dd12d906371aad10d906115e1908690600401614102565b600060405180830381865afa1580156115fe573d6000803e3d6000fd5b505050506040513d6000823e601f3d9081017fffffffffffffffffffffffffffffffffffffffffffffffffffffffffffffffe016820160405261164491908101906143e2565b8160088151811061165757611657614383565b60209081029190910101526040517f89160467000000000000000000000000000000000000000000000000000000008152600090737109709ecfa91a80626ff3989d68f67f5b1dd12d906389160467906116b590859060040161442b565b6000604051808303816000875af11580156116d4573d6000803e3d6000fd5b505050506040513d6000823e601f3d9081017fffffffffffffffffffffffffffffffffffffffffffffffffffffffffffffffe016820160405261171a91908101906144cb565b9050808060200190518101906108fb91906144cb565b60408051600480825260a0820190925260009182918291816020015b606081526020019060019003908161174c5790505090506040518060400160405280601581526020017f736372697074732f676f2d6666692f676f2d6666690000000000000000000000815250816000815181106117ac576117ac614383565b60200260200101819052506040518060400160405280600481526020017f64696666000000000000000000000000000000000000000000000000000000008152508160018151811061180057611800614383565b60200260200101819052506040518060400160405280601481526020017f6465636f646556657273696f6e65644e6f6e63650000000000000000000000008152508160028151811061185457611854614383565b60209081029190910101526040517f6900a3ae00000000000000000000000000000000000000000000000000000000815260048101859052737109709ecfa91a80626ff3989d68f67f5b1dd12d90636900a3ae90602401600060405180830381865afa1580156118c8573d6000803e3d6000fd5b505050506040513d6000823e601f3d9081017fffffffffffffffffffffffffffffffffffffffffffffffffffffffffffffffe016820160405261190e91908101906143e2565b8160038151811061192157611921614383565b60209081029190910101526040517f89160467000000000000000000000000000000000000000000000000000000008152600090737109709ecfa91a80626ff3989d68f67f5b1dd12d9063891604679061197f90859060040161442b565b6000604051808303816000875af115801561199e573d6000803e3d6000fd5b505050506040513d6000823e601f3d9081017fffffffffffffffffffffffffffffffffffffffffffffffffffffffffffffffe01682016040526119e491908101906144cb565b9050808060200190518101906119fa919061461c565b935093505050915091565b60408051600680825260e08201909252600091606091829182918591816020015b6060815260200190600190039081611a265790505090506040518060400160405280601781526020017f2e2f736372697074732f676f2d6666692f676f2d66666900000000000000000081525081600081518110611a8657611a86614383565b60200260200101819052506040518060400160405280600481526020017f747269650000000000000000000000000000000000000000000000000000000081525081600181518110611ada57611ada614383565b60200260200101819052508581600281518110611af957611af9614383565b60209081029190910101526040517f89160467000000000000000000000000000000000000000000000000000000008152737109709ecfa91a80626ff3989d68f67f5b1dd12d90638916046790611b5490849060040161442b565b6000604051808303816000875af1158015611b73573d6000803e3d6000fd5b505050506040513d6000823e601f3d9081017fffffffffffffffffffffffffffffffffffffffffffffffffffffffffffffffe0168201604052611bb991908101906144cb565b806020019051810190611bcc9190614640565b9450945094509450509193509193565b60408051600780825261010082019092526000916060918391816020015b6060815260200190600190039081611bfa5790505090506040518060400160405280601581526020017f736372697074732f676f2d6666692f676f2d666669000000000000000000000081525081600081518110611c5a57611c5a614383565b60200260200101819052506040518060400160405280600481526020017f646966660000000000000000000000000000000000000000000000000000000081525081600181518110611cae57611cae614383565b60200260200101819052506040518060400160405280601181526020017f63616e6e6f6e4d656d6f727950726f6f6600000000000000000000000000000081525081600281518110611d0257611d02614383565b60209081029190910101526040517f6900a3ae00000000000000000000000000000000000000000000000000000000815263ffffffff88166004820152737109709ecfa91a80626ff3989d68f67f5b1dd12d90636900a3ae90602401600060405180830381865afa158015611d7b573d6000803e3d6000fd5b505050506040513d6000823e601f3d9081017fffffffffffffffffffffffffffffffffffffffffffffffffffffffffffffffe0168201604052611dc191908101906143e2565b81600381518110611dd457611dd4614383565b60209081029190910101526040517f6900a3ae00000000000000000000000000000000000000000000000000000000815263ffffffff87166004820152737109709ecfa91a80626ff3989d68f67f5b1dd12d90636900a3ae90602401600060405180830381865afa158015611e4d573d6000803e3d6000fd5b505050506040513d6000823e601f3d9081017fffffffffffffffffffffffffffffffffffffffffffffffffffffffffffffffe0168201604052611e9391908101906143e2565b81600481518110611ea657611ea6614383565b60209081029190910101526040517f6900a3ae00000000000000000000000000000000000000000000000000000000815263ffffffff86166004820152737109709ecfa91a80626ff3989d68f67f5b1dd12d90636900a3ae90602401600060405180830381865afa158015611f1f573d6000803e3d6000fd5b505050506040513d6000823e601f3d9081017fffffffffffffffffffffffffffffffffffffffffffffffffffffffffffffffe0168201604052611f6591908101906143e2565b81600581518110611f7857611f78614383565b60209081029190910101526040517f6900a3ae00000000000000000000000000000000000000000000000000000000815263ffffffff85166004820152737109709ecfa91a80626ff3989d68f67f5b1dd12d90636900a3ae90602401600060405180830381865afa158015611ff1573d6000803e3d6000fd5b505050506040513d6000823e601f3d9081017fffffffffffffffffffffffffffffffffffffffffffffffffffffffffffffffe016820160405261203791908101906143e2565b8160068151811061204a5761204a614383565b60209081029190910101526040517f89160467000000000000000000000000000000000000000000000000000000008152600090737109709ecfa91a80626ff3989d68f67f5b1dd12d906389160467906120a890859060040161442b565b6000604051808303816000875af11580156120c7573d6000803e3d6000fd5b505050506040513d6000823e601f3d9081017fffffffffffffffffffffffffffffffffffffffffffffffffffffffffffffffe016820160405261210d91908101906144cb565b90506000808280602001905181019061212691906146d2565b909b909a5098505050505050505050565b60408051600580825260c082019092526000916060918391816020015b60608152602001906001900390816121545790505090506040518060400160405280601581526020017f736372697074732f676f2d6666692f676f2d6666690000000000000000000000815250816000815181106121b4576121b4614383565b60200260200101819052506040518060400160405280600481526020017f64696666000000000000000000000000000000000000000000000000000000008152508160018151811061220857612208614383565b60200260200101819052506040518060400160405280601181526020017f63616e6e6f6e4d656d6f727950726f6f660000000000000000000000000000008152508160028151811061225c5761225c614383565b60209081029190910101526040517f6900a3ae00000000000000000000000000000000000000000000000000000000815263ffffffff86166004820152737109709ecfa91a80626ff3989d68f67f5b1dd12d90636900a3ae90602401600060405180830381865afa1580156122d5573d6000803e3d6000fd5b505050506040513d6000823e601f3d9081017fffffffffffffffffffffffffffffffffffffffffffffffffffffffffffffffe016820160405261231b91908101906143e2565b8160038151811061232e5761232e614383565b60209081029190910101526040517f6900a3ae00000000000000000000000000000000000000000000000000000000815263ffffffff85166004820152737109709ecfa91a80626ff3989d68f67f5b1dd12d90636900a3ae90602401600060405180830381865afa1580156123a7573d6000803e3d6000fd5b505050506040513d6000823e601f3d9081017fffffffffffffffffffffffffffffffffffffffffffffffffffffffffffffffe01682016040526123ed91908101906143e2565b8160048151811061240057612400614383565b60209081029190910101526040517f89160467000000000000000000000000000000000000000000000000000000008152600090737109709ecfa91a80626ff3989d68f67f5b1dd12d9063891604679061245e90859060040161442b565b6000604051808303816000875af115801561247d573d6000803e3d6000fd5b505050506040513d6000823e601f3d9081017fffffffffffffffffffffffffffffffffffffffffffffffffffffffffffffffe01682016040526124c391908101906144cb565b9050600080828060200190518101906124dc91906146d2565b9096509450505050505b9250929050565b60408051600b8082526101808201909252600091829190816020015b60608152602001906001900390816125095790505090506040518060400160405280601581526020017f736372697074732f676f2d6666692f676f2d66666900000000000000000000008152508160008151811061256957612569614383565b60200260200101819052506040518060400160405280600481526020017f6469666600000000000000000000000000000000000000000000000000000000815250816001815181106125bd576125bd614383565b60200260200101819052506040518060400160405280601681526020017f686173684465706f7369745472616e73616374696f6e000000000000000000008152508160028151811061261157612611614383565b6020026020010181905250604051806080016040528060428152602001614915604291398160038151811061264857612648614383565b60209081029190910101526040517f6900a3ae00000000000000000000000000000000000000000000000000000000815267ffffffffffffffff84166004820152737109709ecfa91a80626ff3989d68f67f5b1dd12d90636900a3ae90602401600060405180830381865afa1580156126c5573d6000803e3d6000fd5b505050506040513d6000823e601f3d9081017fffffffffffffffffffffffffffffffffffffffffffffffffffffffffffffffe016820160405261270b91908101906143e2565b8160048151811061271e5761271e614383565b60209081029190910101526040517f56ca623e00000000000000000000000000000000000000000000000000000000815273ffffffffffffffffffffffffffffffffffffffff8a166004820152737109709ecfa91a80626ff3989d68f67f5b1dd12d906356ca623e90602401600060405180830381865afa1580156127a7573d6000803e3d6000fd5b505050506040513d6000823e601f3d9081017fffffffffffffffffffffffffffffffffffffffffffffffffffffffffffffffe01682016040526127ed91908101906143e2565b8160058151811061280057612800614383565b60209081029190910101526040517f56ca623e00000000000000000000000000000000000000000000000000000000815273ffffffffffffffffffffffffffffffffffffffff89166004820152737109709ecfa91a80626ff3989d68f67f5b1dd12d906356ca623e90602401600060405180830381865afa158015612889573d6000803e3d6000fd5b505050506040513d6000823e601f3d9081017fffffffffffffffffffffffffffffffffffffffffffffffffffffffffffffffe01682016040526128cf91908101906143e2565b816006815181106128e2576128e2614383565b60209081029190910101526040517f6900a3ae00000000000000000000000000000000000000000000000000000000815260048101889052737109709ecfa91a80626ff3989d68f67f5b1dd12d90636900a3ae90602401600060405180830381865afa158015612956573d6000803e3d6000fd5b505050506040513d6000823e601f3d9081017fffffffffffffffffffffffffffffffffffffffffffffffffffffffffffffffe016820160405261299c91908101906143e2565b816007815181106129af576129af614383565b60209081029190910101526040517f6900a3ae00000000000000000000000000000000000000000000000000000000815260048101879052737109709ecfa91a80626ff3989d68f67f5b1dd12d90636900a3ae90602401600060405180830381865afa158015612a23573d6000803e3d6000fd5b505050506040513d6000823e601f3d9081017fffffffffffffffffffffffffffffffffffffffffffffffffffffffffffffffe0168201604052612a6991908101906143e2565b81600881518110612a7c57612a7c614383565b60209081029190910101526040517f6900a3ae00000000000000000000000000000000000000000000000000000000815267ffffffffffffffff86166004820152737109709ecfa91a80626ff3989d68f67f5b1dd12d90636900a3ae90602401600060405180830381865afa158015612af9573d6000803e3d6000fd5b505050506040513d6000823e601f3d9081017fffffffffffffffffffffffffffffffffffffffffffffffffffffffffffffffe0168201604052612b3f91908101906143e2565b81600981518110612b5257612b52614383565b60209081029190910101526040517f71aad10d000000000000000000000000000000000000000000000000000000008152737109709ecfa91a80626ff3989d68f67f5b1dd12d906371aad10d90612bad908790600401614102565b600060405180830381865afa158015612bca573d6000803e3d6000fd5b505050506040513d6000823e601f3d9081017fffffffffffffffffffffffffffffffffffffffffffffffffffffffffffffffe0168201604052612c1091908101906143e2565b81600a81518110612c2357612c23614383565b60209081029190910101526040517f89160467000000000000000000000000000000000000000000000000000000008152600090737109709ecfa91a80626ff3989d68f67f5b1dd12d90638916046790612c8190859060040161442b565b6000604051808303816000875af1158015612ca0573d6000803e3d6000fd5b505050506040513d6000823e601f3d9081017fffffffffffffffffffffffffffffffffffffffffffffffffffffffffffffffe0168201604052612ce691908101906144cb565b905080806020019051810190612cfc9190614500565b9a9950505050505050505050565b6040805160098082526101408201909252600091829190816020015b6060815260200190600190039081612d265790505090506040518060400160405280601581526020017f736372697074732f676f2d6666692f676f2d666669000000000000000000000081525081600081518110612d8657612d86614383565b60200260200101819052506040518060400160405280600481526020017f646966660000000000000000000000000000000000000000000000000000000081525081600181518110612dda57612dda614383565b60200260200101819052506040518060400160405280600e81526020017f686173685769746864726177616c0000000000000000000000000000000000008152508160028151811061032657610326614383565b6040805160078082526101008201909252600091829190816020015b6060815260200190600190039081612e4a5790505090506040518060400160405280601581526020017f736372697074732f676f2d6666692f676f2d666669000000000000000000000081525081600081518110612eaa57612eaa614383565b60200260200101819052506040518060400160405280600481526020017f646966660000000000000000000000000000000000000000000000000000000081525081600181518110612efe57612efe614383565b60200260200101819052506040518060400160405280601381526020017f686173684f7574707574526f6f7450726f6f660000000000000000000000000081525081600281518110612f5257612f52614383565b6020908102919091010152612f6686613ab4565b81600381518110612f7957612f79614383565b6020908102919091010152612f8d85613ab4565b81600481518110612fa057612fa0614383565b6020908102919091010152612fb484613ab4565b81600581518110612fc757612fc7614383565b6020908102919091010152612fdb83613ab4565b81600681518110612fee57612fee614383565b60209081029190910101526040517f89160467000000000000000000000000000000000000000000000000000000008152600090737109709ecfa91a80626ff3989d68f67f5b1dd12d9063891604679061304c90859060040161442b565b6000604051808303816000875af115801561306b573d6000803e3d6000fd5b505050506040513d6000823e601f3d9081017fffffffffffffffffffffffffffffffffffffffffffffffffffffffffffffffe01682016040526130b191908101906144cb565b9050808060200190518101906130c79190614500565b979650505050505050565b60408051600c8082526101a0820190925260609160009190816020015b60608152602001906001900390816130ef5790505090506040518060400160405280601581526020017f736372697074732f676f2d6666692f676f2d66666900000000000000000000008152508160008151811061314f5761314f614383565b60200260200101819052506040518060400160405280600481526020017f6469666600000000000000000000000000000000000000000000000000000000815250816001815181106131a3576131a3614383565b60200260200101819052506040518060400160405280601881526020017f656e636f64654465706f7369745472616e73616374696f6e0000000000000000815250816002815181106131f7576131f7614383565b6020026020010181905250737109709ecfa91a80626ff3989d68f67f5b1dd12d73ffffffffffffffffffffffffffffffffffffffff166356ca623e8460000160208101906132459190614719565b6040517fffffffff0000000000000000000000000000000000000000000000000000000060e084901b16815273ffffffffffffffffffffffffffffffffffffffff9091166004820152602401600060405180830381865afa1580156132ae573d6000803e3d6000fd5b505050506040513d6000823e601f3d9081017fffffffffffffffffffffffffffffffffffffffffffffffffffffffffffffffe01682016040526132f491908101906143e2565b8160038151811061330757613307614383565b6020026020010181905250737109709ecfa91a80626ff3989d68f67f5b1dd12d73ffffffffffffffffffffffffffffffffffffffff166356ca623e8460200160208101906133559190614719565b6040517fffffffff0000000000000000000000000000000000000000000000000000000060e084901b16815273ffffffffffffffffffffffffffffffffffffffff9091166004820152602401600060405180830381865afa1580156133be573d6000803e3d6000fd5b505050506040513d6000823e601f3d9081017fffffffffffffffffffffffffffffffffffffffffffffffffffffffffffffffe016820160405261340491908101906143e2565b8160048151811061341757613417614383565b60209081029190910101526040517f6900a3ae00000000000000000000000000000000000000000000000000000000815260608401356004820152737109709ecfa91a80626ff3989d68f67f5b1dd12d90636900a3ae90602401600060405180830381865afa15801561348e573d6000803e3d6000fd5b505050506040513d6000823e601f3d9081017fffffffffffffffffffffffffffffffffffffffffffffffffffffffffffffffe01682016040526134d491908101906143e2565b816005815181106134e7576134e7614383565b60209081029190910101526040517f6900a3ae00000000000000000000000000000000000000000000000000000000815260808401356004820152737109709ecfa91a80626ff3989d68f67f5b1dd12d90636900a3ae90602401600060405180830381865afa15801561355e573d6000803e3d6000fd5b505050506040513d6000823e601f3d9081017fffffffffffffffffffffffffffffffffffffffffffffffffffffffffffffffe01682016040526135a491908101906143e2565b816006815181106135b7576135b7614383565b6020908102919091010152737109709ecfa91a80626ff3989d68f67f5b1dd12d636900a3ae6135ec60c0860160a08701614734565b6040517fffffffff0000000000000000000000000000000000000000000000000000000060e084901b16815267ffffffffffffffff9091166004820152602401600060405180830381865afa158015613649573d6000803e3d6000fd5b505050506040513d6000823e601f3d9081017fffffffffffffffffffffffffffffffffffffffffffffffffffffffffffffffe016820160405261368f91908101906143e2565b816007815181106136a2576136a2614383565b6020908102919091010152737109709ecfa91a80626ff3989d68f67f5b1dd12d6371dce7da6136d7606086016040870161474f565b6040518263ffffffff1660e01b81526004016136f7911515815260200190565b600060405180830381865afa158015613714573d6000803e3d6000fd5b505050506040513d6000823e601f3d9081017fffffffffffffffffffffffffffffffffffffffffffffffffffffffffffffffe016820160405261375a91908101906143e2565b8160088151811061376d5761376d614383565b6020908102919091010152737109709ecfa91a80626ff3989d68f67f5b1dd12d6371aad10d61379f60c0860186614771565b6040518363ffffffff1660e01b81526004016137bc9291906147d6565b600060405180830381865afa1580156137d9573d6000803e3d6000fd5b505050506040513d6000823e601f3d9081017fffffffffffffffffffffffffffffffffffffffffffffffffffffffffffffffe016820160405261381f91908101906143e2565b8160098151811061383257613832614383565b60209081029190910101526040517fb11a19e800000000000000000000000000000000000000000000000000000000815260e08401356004820152737109709ecfa91a80626ff3989d68f67f5b1dd12d9063b11a19e890602401600060405180830381865afa1580156138a9573d6000803e3d6000fd5b505050506040513d6000823e601f3d9081017fffffffffffffffffffffffffffffffffffffffffffffffffffffffffffffffe01682016040526138ef91908101906143e2565b81600a8151811061390257613902614383565b60209081029190910101526040517f6900a3ae0000000000000000000000000000000000000000000000000000000081526101008401356004820152737109709ecfa91a80626ff3989d68f67f5b1dd12d90636900a3ae90602401600060405180830381865afa15801561397a573d6000803e3d6000fd5b505050506040513d6000823e601f3d9081017fffffffffffffffffffffffffffffffffffffffffffffffffffffffffffffffe01682016040526139c091908101906143e2565b81600b815181106139d3576139d3614383565b60209081029190910101526040517f89160467000000000000000000000000000000000000000000000000000000008152600090737109709ecfa91a80626ff3989d68f67f5b1dd12d90638916046790613a3190859060040161442b565b6000604051808303816000875af1158015613a50573d6000803e3d6000fd5b505050506040513d6000823e601f3d9081017fffffffffffffffffffffffffffffffffffffffffffffffffffffffffffffffe0168201604052613a9691908101906144cb565b905080806020019051810190613aac91906144cb565b949350505050565b606081600003613af757505060408051808201909152600481527f3078303000000000000000000000000000000000000000000000000000000000602082015290565b8160005b8115613b1a5780613b0b81614852565b915050600882901c9150613afb565b613aac848260606000613b2e83600261488a565b613b399060026148c7565b67ffffffffffffffff811115613b5157613b51613d96565b6040519080825280601f01601f191660200182016040528015613b7b576020820181803683370190505b5090507f300000000000000000000000000000000000000000000000000000000000000081600081518110613bb257613bb2614383565b60200101907effffffffffffffffffffffffffffffffffffffffffffffffffffffffffffff1916908160001a9053507f780000000000000000000000000000000000000000000000000000000000000081600181518110613c1557613c15614383565b60200101907effffffffffffffffffffffffffffffffffffffffffffffffffffffffffffff1916908160001a9053506000613c5184600261488a565b613c5c9060016148c7565b90505b6001811115613cf9577f303132333435363738396162636465660000000000000000000000000000000085600f1660108110613c9d57613c9d614383565b1a60f81b828281518110613cb357613cb3614383565b60200101907effffffffffffffffffffffffffffffffffffffffffffffffffffffffffffff1916908160001a90535060049490941c93613cf2816148df565b9050613c5f565b508315613d66576040517f08c379a000000000000000000000000000000000000000000000000000000000815260206004820181905260248201527f537472696e67733a20686578206c656e67746820696e73756666696369656e74604482015260640160405180910390fd5b9392505050565b803573ffffffffffffffffffffffffffffffffffffffff81168114613d9157600080fd5b919050565b7f4e487b7100000000000000000000000000000000000000000000000000000000600052604160045260246000fd5b60405160c0810167ffffffffffffffff81118282101715613de857613de8613d96565b60405290565b604051601f82017fffffffffffffffffffffffffffffffffffffffffffffffffffffffffffffffe016810167ffffffffffffffff81118282101715613e3557613e35613d96565b604052919050565b600067ffffffffffffffff821115613e5757613e57613d96565b50601f017fffffffffffffffffffffffffffffffffffffffffffffffffffffffffffffffe01660200190565b6000613e96613e9184613e3d565b613dee565b9050828152838383011115613eaa57600080fd5b828260208301376000602084830101529392505050565b600082601f830112613ed257600080fd5b613d6683833560208501613e83565b60008060008060008060c08789031215613efa57600080fd5b86359550613f0a60208801613d6d565b9450613f1860408801613d6d565b9350606087013592506080870135915060a087013567ffffffffffffffff811115613f4257600080fd5b613f4e89828a01613ec1565b9150509295509295509295565b600060208284031215613f6d57600080fd5b813567ffffffffffffffff80821115613f8557600080fd5b9083019060c08286031215613f9957600080fd5b613fa1613dc5565b82358152613fb160208401613d6d565b6020820152613fc260408401613d6d565b6040820152606083013560608201526080830135608082015260a083013582811115613fed57600080fd5b613ff987828601613ec1565b60a08301525095945050505050565b60005b8381101561402357818101518382015260200161400b565b83811115614032576000848401525b50505050565b60008151808452614050816020860160208601614008565b601f017fffffffffffffffffffffffffffffffffffffffffffffffffffffffffffffffe0169290920160200192915050565b600081518084526020808501808196508360051b8101915082860160005b858110156140ca5782840389526140b8848351614038565b988501989350908401906001016140a0565b5091979650505050505050565b85815284602082015283604082015282606082015260a0608082015260006130c760a0830184614082565b602081526000613d666020830184614038565b60006020828403121561412757600080fd5b5035919050565b60006020828403121561414057600080fd5b813567ffffffffffffffff81111561415757600080fd5b8201601f8101841361416857600080fd5b613aac84823560208401613e83565b8481526080602082015260006141906080830186614038565b82810360408401526141a28186614038565b905082810360608401526130c78185614082565b803563ffffffff81168114613d9157600080fd5b600080600080608085870312156141e057600080fd5b6141e9856141b6565b93506141f7602086016141b6565b9250614205604086016141b6565b9150614213606086016141b6565b905092959194509250565b828152604060208201526000613aac6040830184614038565b6000806040838503121561424a57600080fd5b614253836141b6565b9150614261602084016141b6565b90509250929050565b803567ffffffffffffffff81168114613d9157600080fd5b600080600080600080600060e0888a03121561429d57600080fd5b6142a688613d6d565b96506142b460208901613d6d565b955060408801359450606088013593506142d06080890161426a565b925060a088013567ffffffffffffffff8111156142ec57600080fd5b6142f88a828b01613ec1565b92505061430760c0890161426a565b905092959891949750929550565b6000806000806080858703121561432b57600080fd5b5050823594602084013594506040840135936060013592509050565b60006020828403121561435957600080fd5b813567ffffffffffffffff81111561437057600080fd5b82016101208185031215613d6657600080fd5b7f4e487b7100000000000000000000000000000000000000000000000000000000600052603260045260246000fd5b60006143c0613e9184613e3d565b90508281528383830111156143d457600080fd5b613d66836020830184614008565b6000602082840312156143f457600080fd5b815167ffffffffffffffff81111561440b57600080fd5b8201601f8101841361441c57600080fd5b613aac848251602084016143b2565b6000602080830181845280855180835260408601915060408160051b870101925083870160005b8281101561449e577fffffffffffffffffffffffffffffffffffffffffffffffffffffffffffffffc088860301845261448c858351614038565b94509285019290850190600101614452565b5092979650505050505050565b600082601f8301126144bc57600080fd5b613d66838351602085016143b2565b6000602082840312156144dd57600080fd5b815167ffffffffffffffff8111156144f457600080fd5b613aac848285016144ab565b60006020828403121561451257600080fd5b5051919050565b600082601f83011261452a57600080fd5b8151602067ffffffffffffffff8083111561454757614547613d96565b8260051b614556838201613dee565b938452858101830193838101908886111561457057600080fd5b84880192505b858310156145ac5782518481111561458e5760008081fd5b61459c8a87838c01016144ab565b8352509184019190840190614576565b98975050505050505050565b600080600080600060a086880312156145d057600080fd5b85519450602086015193506040860151925060608601519150608086015167ffffffffffffffff81111561460357600080fd5b61460f88828901614519565b9150509295509295909350565b6000806040838503121561462f57600080fd5b505080516020909101519092909150565b6000806000806080858703121561465657600080fd5b84519350602085015167ffffffffffffffff8082111561467557600080fd5b614681888389016144ab565b9450604087015191508082111561469757600080fd5b6146a3888389016144ab565b935060608701519150808211156146b957600080fd5b506146c687828801614519565b91505092959194509250565b600080604083850312156146e557600080fd5b82519150602083015167ffffffffffffffff81111561470357600080fd5b61470f858286016144ab565b9150509250929050565b60006020828403121561472b57600080fd5b613d6682613d6d565b60006020828403121561474657600080fd5b613d668261426a565b60006020828403121561476157600080fd5b81358015158114613d6657600080fd5b60008083357fffffffffffffffffffffffffffffffffffffffffffffffffffffffffffffffe18436030181126147a657600080fd5b83018035915067ffffffffffffffff8211156147c157600080fd5b6020019150368190038213156124e657600080fd5b60208152816020820152818360408301376000818301604090810191909152601f9092017fffffffffffffffffffffffffffffffffffffffffffffffffffffffffffffffe0160101919050565b7f4e487b7100000000000000000000000000000000000000000000000000000000600052601160045260246000fd5b60007fffffffffffffffffffffffffffffffffffffffffffffffffffffffffffffffff820361488357614883614823565b5060010190565b6000817fffffffffffffffffffffffffffffffffffffffffffffffffffffffffffffffff04831182151516156148c2576148c2614823565b500290565b600082198211156148da576148da614823565b500190565b6000816148ee576148ee614823565b507fffffffffffffffffffffffffffffffffffffffffffffffffffffffffffffffff019056fe30783030303030303030303030303030303030303030303030303030303030303030303030303030303030303030303030303030303030303030303030303030303067657450726f76655769746864726177616c5472616e73616374696f6e496e70757473a164736f6c634300080f000a","linkReferences":{}},"methodIdentifiers":{"decodeVersionedNonce(uint256)":"526dc955","encodeCrossDomainMessage(uint256,address,address,uint256,uint256,bytes)":"498a3c02","encodeDepositTransaction((address,address,bool,uint256,uint256,uint64,bytes,bytes32,uint256))":"fc677392","getCannonMemoryProof(uint32,uint32)":"83dbaa03","getCannonMemoryProof(uint32,uint32,uint32,uint32)":"7f26c48c","getMerkleTrieFuzzCase(string)":"7e577a1b","getProveWithdrawalTransactionInputs((uint256,address,address,uint256,uint256,bytes))":"1aac97c1","hashCrossDomainMessage(uint256,address,address,uint256,uint256,bytes)":"00ec31a6","hashDepositTransaction(address,address,uint256,uint256,uint64,bytes,uint64)":"8ccece97","hashOutputRootProof(bytes32,bytes32,bytes32,bytes32)":"dcf5edef","hashWithdrawal(uint256,address,address,uint256,uint256,bytes)":"c21e8865"},"storageLayout":{"storage":[],"types":{}},"userdoc":{"version":1,"kind":"user","notice":"This contract is set into state using `etch` and therefore must not have constructor logic.         It also MUST be compiled with `0.8.15` because `vm.getDeployedCode` will break if there         are multiple artifacts for different compiler versions."},"devdoc":{"version":1,"kind":"dev","title":"FFIInterface"},"id":241}