{"abi":[{"type":"function","name":"L1","inputs":[],"outputs":[],"stateMutability":"nonpayable"},{"type":"function","name":"L2","inputs":[],"outputs":[],"stateMutability":"nonpayable"},{"type":"function","name":"setUp","inputs":[],"outputs":[],"stateMutability":"nonpayable"},{"type":"error","name":"FfiFailed","inputs":[{"name":"","type":"string","internalType":"string"}]}],"bytecode":{"object":"0x6080604052600f80546001600160a01b03199081167342000000000000000000000000000000000000071790915560108054821673420000000000000000000000000000000000001017905560118054821673420000000000000000000000000000000000001617905560128054821673420000000000000000000000000000000000001217905560138054821673420000000000000000000000000000000000001417905560148054821673420000000000000000000000000000000000001917905560158054821673420000000000000000000000000000000000001117905560168054821673420000000000000000000000000000000000001a17905560178054821673420000000000000000000000000000000000000f179055601880548216734200000000000000000000000000000000000015179055601980548216602160991b179055601a805490911673420000000000000000000000000000000000004217905534801561017457600080fd5b50615ace80620001856000396000f3fe608060405234801561001057600080fd5b50600436106100415760003560e01c8063081752bb146100465780630a9254e4146100505780637809baaf14610058575b600080fd5b61004e610060565b005b61004e611553565b61004e611901565b6000737109709ecfa91a80626ff3989d68f67f5b1dd12d73ffffffffffffffffffffffffffffffffffffffff1663d930a0e66040518163ffffffff1660e01b8152600401600060405180830381865afa1580156100c1573d6000803e3d6000fd5b505050506040513d6000823e601f3d9081017fffffffffffffffffffffffffffffffffffffffffffffffffffffffffffffffe01682016040526101079190810190614d24565b6040516020016101179190614d91565b604080517fffffffffffffffffffffffffffffffffffffffffffffffffffffffffffffffe0818403018152908290527fe0eb04d40000000000000000000000000000000000000000000000000000000082529150737109709ecfa91a80626ff3989d68f67f5b1dd12d9063e0eb04d490610195908490600401614e1c565b6020604051808303816000875af11580156101b4573d6000803e3d6000fd5b505050506040513d601f19601f820116820180604052508101906101d89190614e36565b15156000036105e15760408051600380825260808201909252600091816020015b60608152602001906001900390816101f95790505090506040518060400160405280600481526020017f62617368000000000000000000000000000000000000000000000000000000008152508160008151811061025957610259614e58565b60200260200101819052506040518060400160405280600281526020017f2d63000000000000000000000000000000000000000000000000000000000000815250816001815181106102ad576102ad614e58565b6020026020010181905250737109709ecfa91a80626ff3989d68f67f5b1dd12d73ffffffffffffffffffffffffffffffffffffffff1663d930a0e66040518163ffffffff1660e01b8152600401600060405180830381865afa158015610317573d6000803e3d6000fd5b505050506040513d6000823e601f3d9081017fffffffffffffffffffffffffffffffffffffffffffffffffffffffffffffffe016820160405261035d9190810190614d24565b60405160200161036d9190614e87565b6040516020818303038152906040528160028151811061038f5761038f614e58565b60209081029190910101526040517ff45c1ce7000000000000000000000000000000000000000000000000000000008152600090737109709ecfa91a80626ff3989d68f67f5b1dd12d9063f45c1ce7906103ed908590600401614ec8565b6000604051808303816000875af115801561040c573d6000803e3d6000fd5b505050506040513d6000823e601f3d9081017fffffffffffffffffffffffffffffffffffffffffffffffffffffffffffffffe01682016040526104529190810190614f68565b805190915060030b156105de57805160405160e09190911b60208201526024016040516020818303038152906040526040518060400160405280600481526020017f6261736800000000000000000000000000000000000000000000000000000000815250737109709ecfa91a80626ff3989d68f67f5b1dd12d73ffffffffffffffffffffffffffffffffffffffff1663d930a0e66040518163ffffffff1660e01b8152600401600060405180830381865afa158015610516573d6000803e3d6000fd5b505050506040513d6000823e601f3d9081017fffffffffffffffffffffffffffffffffffffffffffffffffffffffffffffffe016820160405261055c9190810190614d24565b60208085015160408087015190516105779695949301615012565b604080517fffffffffffffffffffffffffffffffffffffffffffffffffffffffffffffffe0818403018152908290527f37eccf6f0000000000000000000000000000000000000000000000000000000082526105d591600401614e1c565b60405180910390fd5b50505b6040517fe0eb04d4000000000000000000000000000000000000000000000000000000008152737109709ecfa91a80626ff3989d68f67f5b1dd12d9063e0eb04d490610631908490600401614e1c565b6020604051808303816000875af1158015610650573d6000803e3d6000fd5b505050506040513d601f19601f820116820180604052508101906106749190614e36565b1515600003610700576040517ffa9d871300000000000000000000000000000000000000000000000000000000815260016004820152737109709ecfa91a80626ff3989d68f67f5b1dd12d9063fa9d871390602401600060405180830381600087803b1580156106e357600080fd5b505af11580156106f7573d6000803e3d6000fd5b505050506105e1565b6040517fb3a056d7000000000000000000000000000000000000000000000000000000008152737109709ecfa91a80626ff3989d68f67f5b1dd12d9063b3a056d790610750908490600401614e1c565b600060405180830381600087803b15801561076a57600080fd5b505af115801561077e573d6000803e3d6000fd5b5050505060006040516020016107c5906020808252600f908201527f6f7074696d69736d2e6465706c6f790000000000000000000000000000000000604082015260600190565b6040516020818303038152906040528051906020012060001c73ffffffffffffffffffffffffffffffffffffffff16630457dad26040518163ffffffff1660e01b8152600401602060405180830381865afa158015610828573d6000803e3d6000fd5b505050506040513d601f19601f8201168201806040525081019061084c91906151ba565b73ffffffffffffffffffffffffffffffffffffffff1663d2354f206040518163ffffffff1660e01b8152600401602060405180830381865afa158015610896573d6000803e3d6000fd5b505050506040513d601f19601f820116820180604052508101906108ba91906151ba565b601a54604080517f8da5cb5b0000000000000000000000000000000000000000000000000000000081529051929350737109709ecfa91a80626ff3989d68f67f5b1dd12d9263ca669fa79273ffffffffffffffffffffffffffffffffffffffff1691638da5cb5b9160048083019260209291908290030181865afa158015610946573d6000803e3d6000fd5b505050506040513d601f19601f8201168201806040525081019061096a91906151ba565b6040517fffffffff0000000000000000000000000000000000000000000000000000000060e084901b16815273ffffffffffffffffffffffffffffffffffffffff9091166004820152602401600060405180830381600087803b1580156109d057600080fd5b505af11580156109e4573d6000803e3d6000fd5b5050601a546040517ff2fde38b00000000000000000000000000000000000000000000000000000000815273ffffffffffffffffffffffffffffffffffffffff8581166004830152909116925063f2fde38b9150602401600060405180830381600087803b158015610a5557600080fd5b505af1158015610a69573d6000803e3d6000fd5b5050604080517fc657c71800000000000000000000000000000000000000000000000000000000815273420000000000000000000000000000000000001260048201526024810191909152601c60448201527f4f7074696d69736d4d696e7461626c654552433230466163746f7279000000006064820152737109709ecfa91a80626ff3989d68f67f5b1dd12d925063c657c7189150608401600060405180830381600087803b158015610b1c57600080fd5b505af1158015610b30573d6000803e3d6000fd5b5050604080517fc657c71800000000000000000000000000000000000000000000000000000000815273420000000000000000000000000000000000001060048201526024810191909152601060448201527f4c325374616e64617264427269646765000000000000000000000000000000006064820152737109709ecfa91a80626ff3989d68f67f5b1dd12d925063c657c7189150608401600060405180830381600087803b158015610be357600080fd5b505af1158015610bf7573d6000803e3d6000fd5b5050604080517fc657c71800000000000000000000000000000000000000000000000000000000815273420000000000000000000000000000000000000760048201526024810191909152601660448201527f4c3243726f7373446f6d61696e4d657373656e676572000000000000000000006064820152737109709ecfa91a80626ff3989d68f67f5b1dd12d925063c657c7189150608401600060405180830381600087803b158015610caa57600080fd5b505af1158015610cbe573d6000803e3d6000fd5b5050604080517fc657c71800000000000000000000000000000000000000000000000000000000815273420000000000000000000000000000000000001660048201526024810191909152601360448201527f4c32546f4c314d657373616765506173736572000000000000000000000000006064820152737109709ecfa91a80626ff3989d68f67f5b1dd12d925063c657c7189150608401600060405180830381600087803b158015610d7157600080fd5b505af1158015610d85573d6000803e3d6000fd5b5050604080517fc657c71800000000000000000000000000000000000000000000000000000000815273420000000000000000000000000000000000001160048201526024810191909152601160448201527f53657175656e6365724665655661756c740000000000000000000000000000006064820152737109709ecfa91a80626ff3989d68f67f5b1dd12d925063c657c7189150608401600060405180830381600087803b158015610e3857600080fd5b505af1158015610e4c573d6000803e3d6000fd5b5050604080517fc657c71800000000000000000000000000000000000000000000000000000000815273420000000000000000000000000000000000001460048201526024810191909152600e60448201527f4c324552433732314272696467650000000000000000000000000000000000006064820152737109709ecfa91a80626ff3989d68f67f5b1dd12d925063c657c7189150608401600060405180830381600087803b158015610eff57600080fd5b505af1158015610f13573d6000803e3d6000fd5b5050604080517fc657c71800000000000000000000000000000000000000000000000000000000815273420000000000000000000000000000000000001960048201526024810191909152600c60448201527f426173654665655661756c7400000000000000000000000000000000000000006064820152737109709ecfa91a80626ff3989d68f67f5b1dd12d925063c657c7189150608401600060405180830381600087803b158015610fc657600080fd5b505af1158015610fda573d6000803e3d6000fd5b5050604080517fc657c71800000000000000000000000000000000000000000000000000000000815273420000000000000000000000000000000000001a60048201526024810191909152600a60448201527f4c314665655661756c74000000000000000000000000000000000000000000006064820152737109709ecfa91a80626ff3989d68f67f5b1dd12d925063c657c7189150608401600060405180830381600087803b15801561108d57600080fd5b505af11580156110a1573d6000803e3d6000fd5b5050604080517fc657c71800000000000000000000000000000000000000000000000000000000815273420000000000000000000000000000000000001560048201526024810191909152600760448201527f4c31426c6f636b000000000000000000000000000000000000000000000000006064820152737109709ecfa91a80626ff3989d68f67f5b1dd12d925063c657c7189150608401600060405180830381600087803b15801561115457600080fd5b505af1158015611168573d6000803e3d6000fd5b5050604080517fc657c71800000000000000000000000000000000000000000000000000000000815273420000000000000000000000000000000000000f60048201526024810191909152600e60448201527f47617350726963654f7261636c650000000000000000000000000000000000006064820152737109709ecfa91a80626ff3989d68f67f5b1dd12d925063c657c7189150608401600060405180830381600087803b15801561121b57600080fd5b505af115801561122f573d6000803e3d6000fd5b5050604080517fc657c71800000000000000000000000000000000000000000000000000000000815273420000000000000000000000000000000000000060048201526024810191909152601360448201527f4c65676163794d657373616765506173736572000000000000000000000000006064820152737109709ecfa91a80626ff3989d68f67f5b1dd12d925063c657c7189150608401600060405180830381600087803b1580156112e257600080fd5b505af11580156112f6573d6000803e3d6000fd5b5050604080517fc657c71800000000000000000000000000000000000000000000000000000000815273420000000000000000000000000000000000004260048201526024810191909152600f60448201527f476f7665726e616e6365546f6b656e00000000000000000000000000000000006064820152737109709ecfa91a80626ff3989d68f67f5b1dd12d925063c657c7189150608401600060405180830381600087803b1580156113a957600080fd5b505af11580156113bd573d6000803e3d6000fd5b5050604080517fc657c71800000000000000000000000000000000000000000000000000000000815273420000000000000000000000000000000000002160048201526024810191909152600360448201527f45415300000000000000000000000000000000000000000000000000000000006064820152737109709ecfa91a80626ff3989d68f67f5b1dd12d925063c657c7189150608401600060405180830381600087803b15801561147057600080fd5b505af1158015611484573d6000803e3d6000fd5b5050604080517fc657c71800000000000000000000000000000000000000000000000000000000815273420000000000000000000000000000000000002060048201526024810191909152600e60448201527f536368656d6152656769737472790000000000000000000000000000000000006064820152737109709ecfa91a80626ff3989d68f67f5b1dd12d925063c657c7189150608401600060405180830381600087803b15801561153757600080fd5b505af115801561154b573d6000803e3d6000fd5b505050505050565b737109709ecfa91a80626ff3989d68f67f5b1dd12d73ffffffffffffffffffffffffffffffffffffffff1663b4d6c7826040516020016115c4906020808252600f908201527f6f7074696d69736d2e6465706c6f790000000000000000000000000000000000604082015260600190565b604080518083037fffffffffffffffffffffffffffffffffffffffffffffffffffffffffffffffe00181529082905280516020918201207f3ebf73b40000000000000000000000000000000000000000000000000000000083526004830191909152601360248301527f4465706c6f792e732e736f6c3a4465706c6f7900000000000000000000000000604483015290737109709ecfa91a80626ff3989d68f67f5b1dd12d90633ebf73b490606401600060405180830381865afa158015611690573d6000803e3d6000fd5b505050506040513d6000823e601f3d9081017fffffffffffffffffffffffffffffffffffffffffffffffffffffffffffffffe01682016040526116d691908101906151d7565b6040518363ffffffff1660e01b81526004016116f392919061520c565b600060405180830381600087803b15801561170d57600080fd5b505af1158015611721573d6000803e3d6000fd5b50505050737109709ecfa91a80626ff3989d68f67f5b1dd12d73ffffffffffffffffffffffffffffffffffffffff1663ea060291604051602001611796906020808252600f908201527f6f7074696d69736d2e6465706c6f790000000000000000000000000000000000604082015260600190565b604080518083037fffffffffffffffffffffffffffffffffffffffffffffffffffffffffffffffe001815290829052805160209091012060e083901b7fffffffff0000000000000000000000000000000000000000000000000000000016825273ffffffffffffffffffffffffffffffffffffffff166004820152602401600060405180830381600087803b15801561182e57600080fd5b505af1158015611842573d6000803e3d6000fd5b50505050604051602001611887906020808252600f908201527f6f7074696d69736d2e6465706c6f790000000000000000000000000000000000604082015260600190565b6040516020818303038152906040528051906020012060001c73ffffffffffffffffffffffffffffffffffffffff16630a9254e46040518163ffffffff1660e01b8152600401600060405180830381600087803b1580156118e757600080fd5b505af11580156118fb573d6000803e3d6000fd5b50505050565b604080517fb4d6c782000000000000000000000000000000000000000000000000000000008152734e59b44847b379578588920ca78fbf26c0b4956c60048201526024810191909152604560448201527f7fffffffffffffffffffffffffffffffffffffffffffffffffffffffffffffff60648201527fe03601600081602082378035828234f58015156039578182fd5b80825250505060848201527f6014600cf300000000000000000000000000000000000000000000000000000060a4820152737109709ecfa91a80626ff3989d68f67f5b1dd12d9063b4d6c7829060c401600060405180830381600087803b1580156119fc57600080fd5b505af1158015611a10573d6000803e3d6000fd5b50505050604051602001611a55906020808252600f908201527f6f7074696d69736d2e6465706c6f790000000000000000000000000000000000604082015260600190565b6040516020818303038152906040528051906020012060001c73ffffffffffffffffffffffffffffffffffffffff1663c04062266040518163ffffffff1660e01b8152600401600060405180830381600087803b158015611ab557600080fd5b505af1158015611ac9573d6000803e3d6000fd5b50505050604051602001611b0e906020808252600f908201527f6f7074696d69736d2e6465706c6f790000000000000000000000000000000000604082015260600190565b604080517fffffffffffffffffffffffffffffffffffffffffffffffffffffffffffffffe08184030181529082905280516020909101207f3fb9027100000000000000000000000000000000000000000000000000000000825273ffffffffffffffffffffffffffffffffffffffff1690633fb9027190611b919060040161523b565b602060405180830381865afa158015611bae573d6000803e3d6000fd5b505050506040513d601f19601f82011682018060405250810190611bd291906151ba565b600080547fffffffffffffffffffffffff00000000000000000000000000000000000000001673ffffffffffffffffffffffffffffffffffffffff9290921691909117905560408051602080820152600f918101919091527f6f7074696d69736d2e6465706c6f7900000000000000000000000000000000006060820152608001604080517fffffffffffffffffffffffffffffffffffffffffffffffffffffffffffffffe08184030181529082905280516020909101207f3fb9027100000000000000000000000000000000000000000000000000000000825273ffffffffffffffffffffffffffffffffffffffff1690633fb9027190611cd69060040161523b565b602060405180830381865afa158015611cf3573d6000803e3d6000fd5b505050506040513d601f19601f82011682018060405250810190611d1791906151ba565b600180547fffffffffffffffffffffffff00000000000000000000000000000000000000001673ffffffffffffffffffffffffffffffffffffffff9290921691909117905560408051602080820152600f918101919091527f6f7074696d69736d2e6465706c6f7900000000000000000000000000000000006060820152608001604080517fffffffffffffffffffffffffffffffffffffffffffffffffffffffffffffffe08184030181529082905280516020909101207f3fb9027100000000000000000000000000000000000000000000000000000000825273ffffffffffffffffffffffffffffffffffffffff1690633fb9027190611e1b9060040161527e565b602060405180830381865afa158015611e38573d6000803e3d6000fd5b505050506040513d601f19601f82011682018060405250810190611e5c91906151ba565b600280547fffffffffffffffffffffffff00000000000000000000000000000000000000001673ffffffffffffffffffffffffffffffffffffffff9290921691909117905560408051602080820152600f918101919091527f6f7074696d69736d2e6465706c6f7900000000000000000000000000000000006060820152608001604080517fffffffffffffffffffffffffffffffffffffffffffffffffffffffffffffffe08184030181529082905280516020909101207f3fb9027100000000000000000000000000000000000000000000000000000000825273ffffffffffffffffffffffffffffffffffffffff1690633fb9027190611f60906004016152bb565b602060405180830381865afa158015611f7d573d6000803e3d6000fd5b505050506040513d601f19601f82011682018060405250810190611fa191906151ba565b600380547fffffffffffffffffffffffff00000000000000000000000000000000000000001673ffffffffffffffffffffffffffffffffffffffff9290921691909117905560408051602080820152600f918101919091527f6f7074696d69736d2e6465706c6f7900000000000000000000000000000000006060820152608001604080517fffffffffffffffffffffffffffffffffffffffffffffffffffffffffffffffe08184030181529082905280516020909101207f3fb9027100000000000000000000000000000000000000000000000000000000825273ffffffffffffffffffffffffffffffffffffffff1690633fb90271906120a5906004016152f8565b602060405180830381865afa1580156120c2573d6000803e3d6000fd5b505050506040513d601f19601f820116820180604052508101906120e691906151ba565b600480547fffffffffffffffffffffffff00000000000000000000000000000000000000001673ffffffffffffffffffffffffffffffffffffffff9290921691909117905560408051602080820152600f918101919091527f6f7074696d69736d2e6465706c6f7900000000000000000000000000000000006060820152608001604080517fffffffffffffffffffffffffffffffffffffffffffffffffffffffffffffffe08184030181529082905280516020909101207f3fb9027100000000000000000000000000000000000000000000000000000000825273ffffffffffffffffffffffffffffffffffffffff1690633fb90271906121ea90600401615335565b602060405180830381865afa158015612207573d6000803e3d6000fd5b505050506040513d601f19601f8201168201806040525081019061222b91906151ba565b600580547fffffffffffffffffffffffff00000000000000000000000000000000000000001673ffffffffffffffffffffffffffffffffffffffff9290921691909117905560408051602080820152600f918101919091527f6f7074696d69736d2e6465706c6f7900000000000000000000000000000000006060820152608001604080517fffffffffffffffffffffffffffffffffffffffffffffffffffffffffffffffe08184030181529082905280516020909101207f3fb9027100000000000000000000000000000000000000000000000000000000825273ffffffffffffffffffffffffffffffffffffffff1690633fb902719061232f90600401615372565b602060405180830381865afa15801561234c573d6000803e3d6000fd5b505050506040513d601f19601f8201168201806040525081019061237091906151ba565b600680547fffffffffffffffffffffffff00000000000000000000000000000000000000001673ffffffffffffffffffffffffffffffffffffffff9290921691909117905560408051602080820152600f918101919091527f6f7074696d69736d2e6465706c6f7900000000000000000000000000000000006060820152608001604080517fffffffffffffffffffffffffffffffffffffffffffffffffffffffffffffffe08184030181529082905280516020909101207f3fb9027100000000000000000000000000000000000000000000000000000000825273ffffffffffffffffffffffffffffffffffffffff1690633fb9027190612474906004016153af565b602060405180830381865afa158015612491573d6000803e3d6000fd5b505050506040513d601f19601f820116820180604052508101906124b591906151ba565b600780547fffffffffffffffffffffffff00000000000000000000000000000000000000001673ffffffffffffffffffffffffffffffffffffffff9290921691909117905560408051602080820152600f918101919091527f6f7074696d69736d2e6465706c6f7900000000000000000000000000000000006060820152608001604080517fffffffffffffffffffffffffffffffffffffffffffffffffffffffffffffffe08184030181529082905280516020909101207f3fb9027100000000000000000000000000000000000000000000000000000000825273ffffffffffffffffffffffffffffffffffffffff1690633fb90271906125b9906004016153ec565b602060405180830381865afa1580156125d6573d6000803e3d6000fd5b505050506040513d601f19601f820116820180604052508101906125fa91906151ba565b600880547fffffffffffffffffffffffff00000000000000000000000000000000000000001673ffffffffffffffffffffffffffffffffffffffff9290921691909117905560408051602080820152600f918101919091527f6f7074696d69736d2e6465706c6f7900000000000000000000000000000000006060820152608001604080517fffffffffffffffffffffffffffffffffffffffffffffffffffffffffffffffe08184030181529082905280516020909101207f3fb9027100000000000000000000000000000000000000000000000000000000825273ffffffffffffffffffffffffffffffffffffffff1690633fb90271906126fe90600401615429565b602060405180830381865afa15801561271b573d6000803e3d6000fd5b505050506040513d601f19601f8201168201806040525081019061273f91906151ba565b600980547fffffffffffffffffffffffff00000000000000000000000000000000000000001673ffffffffffffffffffffffffffffffffffffffff9290921691909117905560408051602080820152600f918101919091527f6f7074696d69736d2e6465706c6f7900000000000000000000000000000000006060820152608001604080517fffffffffffffffffffffffffffffffffffffffffffffffffffffffffffffffe08184030181529082905280516020909101207f3fb9027100000000000000000000000000000000000000000000000000000000825273ffffffffffffffffffffffffffffffffffffffff1690633fb902719061284390600401615466565b602060405180830381865afa158015612860573d6000803e3d6000fd5b505050506040513d601f19601f8201168201806040525081019061288491906151ba565b600a80547fffffffffffffffffffffffff00000000000000000000000000000000000000001673ffffffffffffffffffffffffffffffffffffffff9290921691909117905560408051602080820152600f918101919091527f6f7074696d69736d2e6465706c6f7900000000000000000000000000000000006060820152608001604080517fffffffffffffffffffffffffffffffffffffffffffffffffffffffffffffffe08184030181529082905280516020909101207f3fb9027100000000000000000000000000000000000000000000000000000000825273ffffffffffffffffffffffffffffffffffffffff1690633fb9027190612988906004016154c9565b602060405180830381865afa1580156129a5573d6000803e3d6000fd5b505050506040513d601f19601f820116820180604052508101906129c991906151ba565b600b80547fffffffffffffffffffffffff00000000000000000000000000000000000000001673ffffffffffffffffffffffffffffffffffffffff9290921691909117905560408051602080820152600f918101919091527f6f7074696d69736d2e6465706c6f7900000000000000000000000000000000006060820152608001604080517fffffffffffffffffffffffffffffffffffffffffffffffffffffffffffffffe08184030181529082905280516020909101207f3fb9027100000000000000000000000000000000000000000000000000000000825273ffffffffffffffffffffffffffffffffffffffff1690633fb9027190612acd90600401615506565b602060405180830381865afa158015612aea573d6000803e3d6000fd5b505050506040513d601f19601f82011682018060405250810190612b0e91906151ba565b600c80547fffffffffffffffffffffffff00000000000000000000000000000000000000001673ffffffffffffffffffffffffffffffffffffffff9290921691909117905560408051602080820152600f918101919091527f6f7074696d69736d2e6465706c6f7900000000000000000000000000000000006060820152608001604080518083037fffffffffffffffffffffffffffffffffffffffffffffffffffffffffffffffe00181529082905280516020918201207f3fb902710000000000000000000000000000000000000000000000000000000083526004830191909152601860248301527f416e63686f725374617465526567697374727950726f78790000000000000000604483015273ffffffffffffffffffffffffffffffffffffffff1690633fb9027190606401602060405180830381865afa158015612c5b573d6000803e3d6000fd5b505050506040513d601f19601f82011682018060405250810190612c7f91906151ba565b600e80547fffffffffffffffffffffffff00000000000000000000000000000000000000001673ffffffffffffffffffffffffffffffffffffffff92831617815560048054604080517fc657c7180000000000000000000000000000000000000000000000000000000081529190941691810191909152602481019290925260448201527f4c324f75747075744f7261636c650000000000000000000000000000000000006064820152737109709ecfa91a80626ff3989d68f67f5b1dd12d9063c657c71890608401600060405180830381600087803b158015612d6257600080fd5b505af1158015612d76573d6000803e3d6000fd5b50505050737109709ecfa91a80626ff3989d68f67f5b1dd12d73ffffffffffffffffffffffffffffffffffffffff1663c657c718604051602001612deb906020808252600f908201527f6f7074696d69736d2e6465706c6f790000000000000000000000000000000000604082015260600190565b604080517fffffffffffffffffffffffffffffffffffffffffffffffffffffffffffffffe08184030181529082905280516020909101207f3fb9027100000000000000000000000000000000000000000000000000000000825273ffffffffffffffffffffffffffffffffffffffff1690633fb9027190612e6e906004016152f8565b602060405180830381865afa158015612e8b573d6000803e3d6000fd5b505050506040513d601f19601f82011682018060405250810190612eaf91906151ba565b6040518263ffffffff1660e01b8152600401612ecb9190615543565b600060405180830381600087803b158015612ee557600080fd5b505af1158015612ef9573d6000803e3d6000fd5b5050600054604080517fc657c71800000000000000000000000000000000000000000000000000000000815273ffffffffffffffffffffffffffffffffffffffff90921660048301526024820152600e60448201527f4f7074696d69736d506f7274616c0000000000000000000000000000000000006064820152737109709ecfa91a80626ff3989d68f67f5b1dd12d925063c657c7189150608401600060405180830381600087803b158015612faf57600080fd5b505af1158015612fc3573d6000803e3d6000fd5b50505050737109709ecfa91a80626ff3989d68f67f5b1dd12d73ffffffffffffffffffffffffffffffffffffffff1663c657c718604051602001613038906020808252600f908201527f6f7074696d69736d2e6465706c6f790000000000000000000000000000000000604082015260600190565b604080517fffffffffffffffffffffffffffffffffffffffffffffffffffffffffffffffe08184030181529082905280516020909101207f3fb9027100000000000000000000000000000000000000000000000000000000825273ffffffffffffffffffffffffffffffffffffffff1690633fb90271906130bb9060040161523b565b602060405180830381865afa1580156130d8573d6000803e3d6000fd5b505050506040513d601f19601f820116820180604052508101906130fc91906151ba565b6040518263ffffffff1660e01b8152600401613118919061559c565b600060405180830381600087803b15801561313257600080fd5b505af1158015613146573d6000803e3d6000fd5b5050600254604080517fc657c71800000000000000000000000000000000000000000000000000000000815273ffffffffffffffffffffffffffffffffffffffff90921660048301526024820152601260448201527f4469737075746547616d65466163746f727900000000000000000000000000006064820152737109709ecfa91a80626ff3989d68f67f5b1dd12d925063c657c7189150608401600060405180830381600087803b1580156131fc57600080fd5b505af1158015613210573d6000803e3d6000fd5b50505050737109709ecfa91a80626ff3989d68f67f5b1dd12d73ffffffffffffffffffffffffffffffffffffffff1663c657c718604051602001613285906020808252600f908201527f6f7074696d69736d2e6465706c6f790000000000000000000000000000000000604082015260600190565b604080517fffffffffffffffffffffffffffffffffffffffffffffffffffffffffffffffe08184030181529082905280516020909101207f3fb9027100000000000000000000000000000000000000000000000000000000825273ffffffffffffffffffffffffffffffffffffffff1690633fb90271906133089060040161527e565b602060405180830381865afa158015613325573d6000803e3d6000fd5b505050506040513d601f19601f8201168201806040525081019061334991906151ba565b6040518263ffffffff1660e01b815260040161336591906155f5565b600060405180830381600087803b15801561337f57600080fd5b505af1158015613393573d6000803e3d6000fd5b5050600354604080517fc657c71800000000000000000000000000000000000000000000000000000000815273ffffffffffffffffffffffffffffffffffffffff90921660048301526024820152600b60448201527f44656c61796564574554480000000000000000000000000000000000000000006064820152737109709ecfa91a80626ff3989d68f67f5b1dd12d925063c657c7189150608401600060405180830381600087803b15801561344957600080fd5b505af115801561345d573d6000803e3d6000fd5b50505050737109709ecfa91a80626ff3989d68f67f5b1dd12d73ffffffffffffffffffffffffffffffffffffffff1663c657c7186040516020016134d2906020808252600f908201527f6f7074696d69736d2e6465706c6f790000000000000000000000000000000000604082015260600190565b604080517fffffffffffffffffffffffffffffffffffffffffffffffffffffffffffffffe08184030181529082905280516020909101207f3fb9027100000000000000000000000000000000000000000000000000000000825273ffffffffffffffffffffffffffffffffffffffff1690633fb9027190613555906004016152bb565b602060405180830381865afa158015613572573d6000803e3d6000fd5b505050506040513d601f19601f8201168201806040525081019061359691906151ba565b6040518263ffffffff1660e01b81526004016135b2919061564e565b600060405180830381600087803b1580156135cc57600080fd5b505af11580156135e0573d6000803e3d6000fd5b5050600554604080517fc657c71800000000000000000000000000000000000000000000000000000000815273ffffffffffffffffffffffffffffffffffffffff90921660048301526024820152600c60448201527f53797374656d436f6e66696700000000000000000000000000000000000000006064820152737109709ecfa91a80626ff3989d68f67f5b1dd12d925063c657c7189150608401600060405180830381600087803b15801561369657600080fd5b505af11580156136aa573d6000803e3d6000fd5b50505050737109709ecfa91a80626ff3989d68f67f5b1dd12d73ffffffffffffffffffffffffffffffffffffffff1663c657c71860405160200161371f906020808252600f908201527f6f7074696d69736d2e6465706c6f790000000000000000000000000000000000604082015260600190565b604080517fffffffffffffffffffffffffffffffffffffffffffffffffffffffffffffffe08184030181529082905280516020909101207f3fb9027100000000000000000000000000000000000000000000000000000000825273ffffffffffffffffffffffffffffffffffffffff1690633fb90271906137a290600401615335565b602060405180830381865afa1580156137bf573d6000803e3d6000fd5b505050506040513d601f19601f820116820180604052508101906137e391906151ba565b6040518263ffffffff1660e01b81526004016137ff91906156a7565b600060405180830381600087803b15801561381957600080fd5b505af115801561382d573d6000803e3d6000fd5b5050600654604080517fc657c71800000000000000000000000000000000000000000000000000000000815273ffffffffffffffffffffffffffffffffffffffff90921660048301526024820152601060448201527f4c315374616e64617264427269646765000000000000000000000000000000006064820152737109709ecfa91a80626ff3989d68f67f5b1dd12d925063c657c7189150608401600060405180830381600087803b1580156138e357600080fd5b505af11580156138f7573d6000803e3d6000fd5b50505050737109709ecfa91a80626ff3989d68f67f5b1dd12d73ffffffffffffffffffffffffffffffffffffffff1663c657c71860405160200161396c906020808252600f908201527f6f7074696d69736d2e6465706c6f790000000000000000000000000000000000604082015260600190565b604080517fffffffffffffffffffffffffffffffffffffffffffffffffffffffffffffffe08184030181529082905280516020909101207f3fb9027100000000000000000000000000000000000000000000000000000000825273ffffffffffffffffffffffffffffffffffffffff1690633fb90271906139ef90600401615372565b602060405180830381865afa158015613a0c573d6000803e3d6000fd5b505050506040513d601f19601f82011682018060405250810190613a3091906151ba565b6040518263ffffffff1660e01b8152600401613a4c9190615700565b600060405180830381600087803b158015613a6657600080fd5b505af1158015613a7a573d6000803e3d6000fd5b5050600754604080517fc657c71800000000000000000000000000000000000000000000000000000000815273ffffffffffffffffffffffffffffffffffffffff90921660048301526024820152601660448201527f4c3143726f7373446f6d61696e4d657373656e676572000000000000000000006064820152737109709ecfa91a80626ff3989d68f67f5b1dd12d925063c657c7189150608401600060405180830381600087803b158015613b3057600080fd5b505af1158015613b44573d6000803e3d6000fd5b50505050737109709ecfa91a80626ff3989d68f67f5b1dd12d73ffffffffffffffffffffffffffffffffffffffff1663c657c718604051602001613bb9906020808252600f908201527f6f7074696d69736d2e6465706c6f790000000000000000000000000000000000604082015260600190565b604080517fffffffffffffffffffffffffffffffffffffffffffffffffffffffffffffffe08184030181529082905280516020909101207f3fb9027100000000000000000000000000000000000000000000000000000000825273ffffffffffffffffffffffffffffffffffffffff1690633fb9027190613c3c906004016153af565b602060405180830381865afa158015613c59573d6000803e3d6000fd5b505050506040513d601f19601f82011682018060405250810190613c7d91906151ba565b6040518263ffffffff1660e01b8152600401613c999190615759565b600060405180830381600087803b158015613cb357600080fd5b505af1158015613cc7573d6000803e3d6000fd5b50506008546040517fc657c718000000000000000000000000000000000000000000000000000000008152737109709ecfa91a80626ff3989d68f67f5b1dd12d935063c657c7189250613d339173ffffffffffffffffffffffffffffffffffffffff16906004016157b2565b600060405180830381600087803b158015613d4d57600080fd5b505af1158015613d61573d6000803e3d6000fd5b5050600954604080517fc657c71800000000000000000000000000000000000000000000000000000000815273ffffffffffffffffffffffffffffffffffffffff90921660048301526024820152600e60448201527f4c314552433732314272696467650000000000000000000000000000000000006064820152737109709ecfa91a80626ff3989d68f67f5b1dd12d925063c657c7189150608401600060405180830381600087803b158015613e1757600080fd5b505af1158015613e2b573d6000803e3d6000fd5b50505050737109709ecfa91a80626ff3989d68f67f5b1dd12d73ffffffffffffffffffffffffffffffffffffffff1663c657c718604051602001613ea0906020808252600f908201527f6f7074696d69736d2e6465706c6f790000000000000000000000000000000000604082015260600190565b604080517fffffffffffffffffffffffffffffffffffffffffffffffffffffffffffffffe08184030181529082905280516020909101207f3fb9027100000000000000000000000000000000000000000000000000000000825273ffffffffffffffffffffffffffffffffffffffff1690633fb9027190613f2390600401615429565b602060405180830381865afa158015613f40573d6000803e3d6000fd5b505050506040513d601f19601f82011682018060405250810190613f6491906151ba565b6040518263ffffffff1660e01b8152600401613f80919061580b565b600060405180830381600087803b158015613f9a57600080fd5b505af1158015613fae573d6000803e3d6000fd5b5050600a54604080517fc657c71800000000000000000000000000000000000000000000000000000000815273ffffffffffffffffffffffffffffffffffffffff90921660048301526024820152601c60448201527f4f7074696d69736d4d696e7461626c654552433230466163746f7279000000006064820152737109709ecfa91a80626ff3989d68f67f5b1dd12d925063c657c7189150608401600060405180830381600087803b15801561406457600080fd5b505af1158015614078573d6000803e3d6000fd5b50505050737109709ecfa91a80626ff3989d68f67f5b1dd12d73ffffffffffffffffffffffffffffffffffffffff1663c657c7186040516020016140ed906020808252600f908201527f6f7074696d69736d2e6465706c6f790000000000000000000000000000000000604082015260600190565b604080517fffffffffffffffffffffffffffffffffffffffffffffffffffffffffffffffe08184030181529082905280516020909101207f3fb9027100000000000000000000000000000000000000000000000000000000825273ffffffffffffffffffffffffffffffffffffffff1690633fb902719061417090600401615466565b602060405180830381865afa15801561418d573d6000803e3d6000fd5b505050506040513d601f19601f820116820180604052508101906141b191906151ba565b6040518263ffffffff1660e01b81526004016141cd9190615864565b600060405180830381600087803b1580156141e757600080fd5b505af11580156141fb573d6000803e3d6000fd5b5050600b54604080517fc657c71800000000000000000000000000000000000000000000000000000000815273ffffffffffffffffffffffffffffffffffffffff90921660048301526024820152601060448201527f50726f746f636f6c56657273696f6e73000000000000000000000000000000006064820152737109709ecfa91a80626ff3989d68f67f5b1dd12d925063c657c7189150608401600060405180830381600087803b1580156142b157600080fd5b505af11580156142c5573d6000803e3d6000fd5b50505050737109709ecfa91a80626ff3989d68f67f5b1dd12d73ffffffffffffffffffffffffffffffffffffffff1663c657c71860405160200161433a906020808252600f908201527f6f7074696d69736d2e6465706c6f790000000000000000000000000000000000604082015260600190565b604080517fffffffffffffffffffffffffffffffffffffffffffffffffffffffffffffffe08184030181529082905280516020909101207f3fb9027100000000000000000000000000000000000000000000000000000000825273ffffffffffffffffffffffffffffffffffffffff1690633fb90271906143bd906004016154c9565b602060405180830381865afa1580156143da573d6000803e3d6000fd5b505050506040513d601f19601f820116820180604052508101906143fe91906151ba565b6040518263ffffffff1660e01b815260040161441a91906158e3565b600060405180830381600087803b15801561443457600080fd5b505af1158015614448573d6000803e3d6000fd5b5050600c54604080517fc657c71800000000000000000000000000000000000000000000000000000000815273ffffffffffffffffffffffffffffffffffffffff90921660048301526024820152601060448201527f5375706572636861696e436f6e666967000000000000000000000000000000006064820152737109709ecfa91a80626ff3989d68f67f5b1dd12d925063c657c7189150608401600060405180830381600087803b1580156144fe57600080fd5b505af1158015614512573d6000803e3d6000fd5b50505050737109709ecfa91a80626ff3989d68f67f5b1dd12d73ffffffffffffffffffffffffffffffffffffffff1663c657c718604051602001614587906020808252600f908201527f6f7074696d69736d2e6465706c6f790000000000000000000000000000000000604082015260600190565b604080517fffffffffffffffffffffffffffffffffffffffffffffffffffffffffffffffe08184030181529082905280516020909101207f3fb9027100000000000000000000000000000000000000000000000000000000825273ffffffffffffffffffffffffffffffffffffffff1690633fb902719061460a90600401615506565b602060405180830381865afa158015614627573d6000803e3d6000fd5b505050506040513d601f19601f8201168201806040525081019061464b91906151ba565b6040518263ffffffff1660e01b8152600401614667919061593c565b600060405180830381600087803b15801561468157600080fd5b505af1158015614695573d6000803e3d6000fd5b5050600754737109709ecfa91a80626ff3989d68f67f5b1dd12d925063c657c71891506146eb9073ffffffffffffffffffffffffffffffffffffffff167311110000000000000000000000000000000011110190565b604080517fffffffff0000000000000000000000000000000000000000000000000000000060e085901b16815273ffffffffffffffffffffffffffffffffffffffff90921660048301526024820152601e60448201527f4c3143726f7373446f6d61696e4d657373656e6765725f616c696173656400006064820152608401600060405180830381600087803b15801561478457600080fd5b505af1158015614798573d6000803e3d6000fd5b505050506040516020016147dd906020808252600f908201527f6f7074696d69736d2e6465706c6f790000000000000000000000000000000000604082015260600190565b6040516020818303038152906040528051906020012060001c73ffffffffffffffffffffffffffffffffffffffff16630457dad26040518163ffffffff1660e01b8152600401602060405180830381865afa158015614840573d6000803e3d6000fd5b505050506040513d601f19601f8201168201806040525081019061486491906151ba565b73ffffffffffffffffffffffffffffffffffffffff16637277e7c96040518163ffffffff1660e01b8152600401602060405180830381865afa1580156148ae573d6000803e3d6000fd5b505050506040513d601f19601f820116820180604052508101906148d29190614e36565b15614c0c57604051602001614918906020808252600f908201527f6f7074696d69736d2e6465706c6f790000000000000000000000000000000000604082015260600190565b604080517fffffffffffffffffffffffffffffffffffffffffffffffffffffffffffffffe08184030181529082905280516020909101207f3fb9027100000000000000000000000000000000000000000000000000000000825273ffffffffffffffffffffffffffffffffffffffff1690633fb902719061499b90600401615995565b602060405180830381865afa1580156149b8573d6000803e3d6000fd5b505050506040513d601f19601f820116820180604052508101906149dc91906151ba565b600d80547fffffffffffffffffffffffff00000000000000000000000000000000000000001673ffffffffffffffffffffffffffffffffffffffff9290921691821790556040517fc657c718000000000000000000000000000000000000000000000000000000008152737109709ecfa91a80626ff3989d68f67f5b1dd12d9163c657c71891614a6f91906004016159d2565b600060405180830381600087803b158015614a8957600080fd5b505af1158015614a9d573d6000803e3d6000fd5b50505050737109709ecfa91a80626ff3989d68f67f5b1dd12d73ffffffffffffffffffffffffffffffffffffffff1663c657c718604051602001614b12906020808252600f908201527f6f7074696d69736d2e6465706c6f790000000000000000000000000000000000604082015260600190565b604080517fffffffffffffffffffffffffffffffffffffffffffffffffffffffffffffffe08184030181529082905280516020909101207f3fb9027100000000000000000000000000000000000000000000000000000000825273ffffffffffffffffffffffffffffffffffffffff1690633fb9027190614b9590600401615a2b565b602060405180830381865afa158015614bb2573d6000803e3d6000fd5b505050506040513d601f19601f82011682018060405250810190614bd691906151ba565b6040518263ffffffff1660e01b8152600401614bf29190615a68565b600060405180830381600087803b1580156118e757600080fd5b565b7f4e487b7100000000000000000000000000000000000000000000000000000000600052604160045260246000fd5b6040516060810167ffffffffffffffff81118282101715614c6057614c60614c0e565b60405290565b60005b83811015614c81578181015183820152602001614c69565b838111156118fb5750506000910152565b600067ffffffffffffffff80841115614cad57614cad614c0e565b604051601f85017fffffffffffffffffffffffffffffffffffffffffffffffffffffffffffffffe0908116603f01168101908282118183101715614cf357614cf3614c0e565b81604052809350858152868686011115614d0c57600080fd5b614d1a866020830187614c66565b5050509392505050565b600060208284031215614d3657600080fd5b815167ffffffffffffffff811115614d4d57600080fd5b8201601f81018413614d5e57600080fd5b614d6d84825160208401614c92565b949350505050565b60008151614d87818560208601614c66565b9290920192915050565b60008251614da3818460208701614c66565b7f2f2e74657374646174612f67656e657369732e6a736f6e000000000000000000920191825250601701919050565b60008151808452614dea816020860160208601614c66565b601f017fffffffffffffffffffffffffffffffffffffffffffffffffffffffffffffffe0169290920160200192915050565b602081526000614e2f6020830184614dd2565b9392505050565b600060208284031215614e4857600080fd5b81518015158114614e2f57600080fd5b7f4e487b7100000000000000000000000000000000000000000000000000000000600052603260045260246000fd5b60008251614e99818460208701614c66565b7f2f736372697074732f67656e65726174652d6c322d67656e657369732e736800920191825250601f01919050565b6000602080830181845280855180835260408601915060408160051b870101925083870160005b82811015614f3b577fffffffffffffffffffffffffffffffffffffffffffffffffffffffffffffffc0888603018452614f29858351614dd2565b94509285019290850190600101614eef565b5092979650505050505050565b600082601f830112614f5957600080fd5b614e2f83835160208501614c92565b600060208284031215614f7a57600080fd5b815167ffffffffffffffff80821115614f9257600080fd5b9083019060608286031215614fa657600080fd5b614fae614c3d565b82518060030b8114614fbf57600080fd5b8152602083015182811115614fd357600080fd5b614fdf87828601614f48565b602083015250604083015182811115614ff757600080fd5b61500387828601614f48565b60408301525095945050505050565b7f4646492063616c6c20746f2067656e65726174652067656e657369732e6a736f81527f6e206661696c65642077697468206578697420636f64653a2000000000000000602082015260008651615070816039850160208b01614c66565b7f2e0a436f6d6d616e643a2000000000000000000000000000000000000000000060399184019182015286516150ad816044840160208b01614c66565b7f202d6320000000000000000000000000000000000000000000000000000000006044929091019182015285516150eb816048840160208a01614c66565b7f2f736372697074732f67656e65726174652d6c322d67656e657369732e736800604892909101918201527f2e0a4f75747075743a20000000000000000000000000000000000000000000006067820152845161514f816071840160208901614c66565b0161517c607182017f0a4572726f723a200000000000000000000000000000000000000000000000009052565b6151896079820185614d75565b98975050505050505050565b73ffffffffffffffffffffffffffffffffffffffff811681146151b757600080fd5b50565b6000602082840312156151cc57600080fd5b8151614e2f81615195565b6000602082840312156151e957600080fd5b815167ffffffffffffffff81111561520057600080fd5b614d6d84828501614f48565b73ffffffffffffffffffffffffffffffffffffffff83168152604060208201526000614d6d6040830184614dd2565b60208152600061527860208301601381527f4f7074696d69736d506f7274616c50726f787900000000000000000000000000602082015260400190565b92915050565b60208152600061527860208301601781527f4469737075746547616d65466163746f727950726f7879000000000000000000602082015260400190565b60208152600061527860208301601081527f44656c617965645745544850726f787900000000000000000000000000000000602082015260400190565b60208152600061527860208301601381527f4c324f75747075744f7261636c6550726f787900000000000000000000000000602082015260400190565b60208152600061527860208301601181527f53797374656d436f6e66696750726f7879000000000000000000000000000000602082015260400190565b60208152600061527860208301601581527f4c315374616e6461726442726964676550726f78790000000000000000000000602082015260400190565b60208152600061527860208301601b81527f4c3143726f7373446f6d61696e4d657373656e67657250726f78790000000000602082015260400190565b60208152600061527860208301600e81527f416464726573734d616e61676572000000000000000000000000000000000000602082015260400190565b60208152600061527860208301601381527f4c3145524337323142726964676550726f787900000000000000000000000000602082015260400190565b60208152600061527860208301602181527f4f7074696d69736d4d696e7461626c654552433230466163746f727950726f7860208201527f7900000000000000000000000000000000000000000000000000000000000000604082015260600190565b60208152600061527860208301601581527f50726f746f636f6c56657273696f6e7350726f78790000000000000000000000602082015260400190565b60208152600061527860208301601581527f5375706572636861696e436f6e66696750726f78790000000000000000000000602082015260400190565b73ffffffffffffffffffffffffffffffffffffffff82168152604060208201526000614e2f60408301601381527f4c324f75747075744f7261636c6550726f787900000000000000000000000000602082015260400190565b73ffffffffffffffffffffffffffffffffffffffff82168152604060208201526000614e2f60408301601381527f4f7074696d69736d506f7274616c50726f787900000000000000000000000000602082015260400190565b73ffffffffffffffffffffffffffffffffffffffff82168152604060208201526000614e2f60408301601781527f4469737075746547616d65466163746f727950726f7879000000000000000000602082015260400190565b73ffffffffffffffffffffffffffffffffffffffff82168152604060208201526000614e2f60408301601081527f44656c617965645745544850726f787900000000000000000000000000000000602082015260400190565b73ffffffffffffffffffffffffffffffffffffffff82168152604060208201526000614e2f60408301601181527f53797374656d436f6e66696750726f7879000000000000000000000000000000602082015260400190565b73ffffffffffffffffffffffffffffffffffffffff82168152604060208201526000614e2f60408301601581527f4c315374616e6461726442726964676550726f78790000000000000000000000602082015260400190565b73ffffffffffffffffffffffffffffffffffffffff82168152604060208201526000614e2f60408301601b81527f4c3143726f7373446f6d61696e4d657373656e67657250726f78790000000000602082015260400190565b73ffffffffffffffffffffffffffffffffffffffff82168152604060208201526000614e2f60408301600e81527f416464726573734d616e61676572000000000000000000000000000000000000602082015260400190565b73ffffffffffffffffffffffffffffffffffffffff82168152604060208201526000614e2f60408301601381527f4c3145524337323142726964676550726f787900000000000000000000000000602082015260400190565b73ffffffffffffffffffffffffffffffffffffffff82168152604060208201526000614e2f60408301602181527f4f7074696d69736d4d696e7461626c654552433230466163746f727950726f7860208201527f7900000000000000000000000000000000000000000000000000000000000000604082015260600190565b73ffffffffffffffffffffffffffffffffffffffff82168152604060208201526000614e2f60408301601581527f50726f746f636f6c56657273696f6e7350726f78790000000000000000000000602082015260400190565b73ffffffffffffffffffffffffffffffffffffffff82168152604060208201526000614e2f60408301601581527f5375706572636861696e436f6e66696750726f78790000000000000000000000602082015260400190565b60208152600061527860208301601e81527f44617461417661696c6162696c6974794368616c6c656e676550726f78790000602082015260400190565b73ffffffffffffffffffffffffffffffffffffffff82168152604060208201526000614e2f60408301601e81527f44617461417661696c6162696c6974794368616c6c656e676550726f78790000602082015260400190565b60208152600061527860208301601981527f44617461417661696c6162696c6974794368616c6c656e676500000000000000602082015260400190565b73ffffffffffffffffffffffffffffffffffffffff82168152604060208201526000614e2f60408301601981527f44617461417661696c6162696c6974794368616c6c656e67650000000000000060208201526040019056fea164736f6c634300080f000a","linkReferences":{}},"methodIdentifiers":{"L1()":"7809baaf","L2()":"081752bb","setUp()":"0a9254e4"},"storageLayout":{"storage":[{"astId":160596,"contract":"test/setup/Setup.sol:Setup","label":"optimismPortal","offset":0,"slot":"0","type":"t_contract(OptimismPortal)73496"},{"astId":160599,"contract":"test/setup/Setup.sol:Setup","label":"optimismPortal2","offset":0,"slot":"1","type":"t_contract(OptimismPortal2)74418"},{"astId":160602,"contract":"test/setup/Setup.sol:Setup","label":"disputeGameFactory","offset":0,"slot":"2","type":"t_contract(DisputeGameFactory)82727"},{"astId":160605,"contract":"test/setup/Setup.sol:Setup","label":"delayedWeth","offset":0,"slot":"3","type":"t_contract(DelayedWETH)86356"},{"astId":160608,"contract":"test/setup/Setup.sol:Setup","label":"l2OutputOracle","offset":0,"slot":"4","type":"t_contract(L2OutputOracle)72794"},{"astId":160611,"contract":"test/setup/Setup.sol:Setup","label":"systemConfig","offset":0,"slot":"5","type":"t_contract(SystemConfig)76050"},{"astId":160614,"contract":"test/setup/Setup.sol:Setup","label":"l1StandardBridge","offset":0,"slot":"6","type":"t_contract(L1StandardBridge)72280"},{"astId":160617,"contract":"test/setup/Setup.sol:Setup","label":"l1CrossDomainMessenger","offset":0,"slot":"7","type":"t_contract(L1CrossDomainMessenger)71504"},{"astId":160620,"contract":"test/setup/Setup.sol:Setup","label":"addressManager","offset":0,"slot":"8","type":"t_contract(AddressManager)86902"},{"astId":160623,"contract":"test/setup/Setup.sol:Setup","label":"l1ERC721Bridge","offset":0,"slot":"9","type":"t_contract(L1ERC721Bridge)71777"},{"astId":160626,"contract":"test/setup/Setup.sol:Setup","label":"l1OptimismMintableERC20Factory","offset":0,"slot":"10","type":"t_contract(OptimismMintableERC20Factory)92366"},{"astId":160629,"contract":"test/setup/Setup.sol:Setup","label":"protocolVersions","offset":0,"slot":"11","type":"t_contract(ProtocolVersions)74669"},{"astId":160632,"contract":"test/setup/Setup.sol:Setup","label":"superchainConfig","offset":0,"slot":"12","type":"t_contract(SuperchainConfig)75236"},{"astId":160635,"contract":"test/setup/Setup.sol:Setup","label":"dataAvailabilityChallenge","offset":0,"slot":"13","type":"t_contract(DataAvailabilityChallenge)71299"},{"astId":160638,"contract":"test/setup/Setup.sol:Setup","label":"anchorStateRegistry","offset":0,"slot":"14","type":"t_contract(AnchorStateRegistry)82231"},{"astId":160648,"contract":"test/setup/Setup.sol:Setup","label":"l2CrossDomainMessenger","offset":0,"slot":"15","type":"t_contract(L2CrossDomainMessenger)76931"},{"astId":160658,"contract":"test/setup/Setup.sol:Setup","label":"l2StandardBridge","offset":0,"slot":"16","type":"t_contract(L2StandardBridge)77589"},{"astId":160668,"contract":"test/setup/Setup.sol:Setup","label":"l2ToL1MessagePasser","offset":0,"slot":"17","type":"t_contract(L2ToL1MessagePasser)77750"},{"astId":160675,"contract":"test/setup/Setup.sol:Setup","label":"l2OptimismMintableERC20Factory","offset":0,"slot":"18","type":"t_contract(OptimismMintableERC20Factory)92366"},{"astId":160682,"contract":"test/setup/Setup.sol:Setup","label":"l2ERC721Bridge","offset":0,"slot":"19","type":"t_contract(L2ERC721Bridge)77166"},{"astId":160692,"contract":"test/setup/Setup.sol:Setup","label":"baseFeeVault","offset":0,"slot":"20","type":"t_contract(BaseFeeVault)76083"},{"astId":160702,"contract":"test/setup/Setup.sol:Setup","label":"sequencerFeeVault","offset":0,"slot":"21","type":"t_contract(SequencerFeeVault)77792"},{"astId":160712,"contract":"test/setup/Setup.sol:Setup","label":"l1FeeVault","offset":0,"slot":"22","type":"t_contract(L1FeeVault)76794"},{"astId":160719,"contract":"test/setup/Setup.sol:Setup","label":"gasPriceOracle","offset":0,"slot":"23","type":"t_contract(GasPriceOracle)76645"},{"astId":160726,"contract":"test/setup/Setup.sol:Setup","label":"l1Block","offset":0,"slot":"24","type":"t_contract(L1Block)76761"},{"astId":160733,"contract":"test/setup/Setup.sol:Setup","label":"legacyMessagePasser","offset":0,"slot":"25","type":"t_contract(LegacyMessagePasser)87254"},{"astId":160740,"contract":"test/setup/Setup.sol:Setup","label":"governanceToken","offset":0,"slot":"26","type":"t_contract(GovernanceToken)86691"}],"types":{"t_contract(AddressManager)86902":{"encoding":"inplace","label":"contract AddressManager","numberOfBytes":"20"},"t_contract(AnchorStateRegistry)82231":{"encoding":"inplace","label":"contract AnchorStateRegistry","numberOfBytes":"20"},"t_contract(BaseFeeVault)76083":{"encoding":"inplace","label":"contract BaseFeeVault","numberOfBytes":"20"},"t_contract(DataAvailabilityChallenge)71299":{"encoding":"inplace","label":"contract DataAvailabilityChallenge","numberOfBytes":"20"},"t_contract(DelayedWETH)86356":{"encoding":"inplace","label":"contract DelayedWETH","numberOfBytes":"20"},"t_contract(DisputeGameFactory)82727":{"encoding":"inplace","label":"contract DisputeGameFactory","numberOfBytes":"20"},"t_contract(GasPriceOracle)76645":{"encoding":"inplace","label":"contract GasPriceOracle","numberOfBytes":"20"},"t_contract(GovernanceToken)86691":{"encoding":"inplace","label":"contract GovernanceToken","numberOfBytes":"20"},"t_contract(L1Block)76761":{"encoding":"inplace","label":"contract L1Block","numberOfBytes":"20"},"t_contract(L1CrossDomainMessenger)71504":{"encoding":"inplace","label":"contract L1CrossDomainMessenger","numberOfBytes":"20"},"t_contract(L1ERC721Bridge)71777":{"encoding":"inplace","label":"contract L1ERC721Bridge","numberOfBytes":"20"},"t_contract(L1FeeVault)76794":{"encoding":"inplace","label":"contract L1FeeVault","numberOfBytes":"20"},"t_contract(L1StandardBridge)72280":{"encoding":"inplace","label":"contract L1StandardBridge","numberOfBytes":"20"},"t_contract(L2CrossDomainMessenger)76931":{"encoding":"inplace","label":"contract L2CrossDomainMessenger","numberOfBytes":"20"},"t_contract(L2ERC721Bridge)77166":{"encoding":"inplace","label":"contract L2ERC721Bridge","numberOfBytes":"20"},"t_contract(L2OutputOracle)72794":{"encoding":"inplace","label":"contract L2OutputOracle","numberOfBytes":"20"},"t_contract(L2StandardBridge)77589":{"encoding":"inplace","label":"contract L2StandardBridge","numberOfBytes":"20"},"t_contract(L2ToL1MessagePasser)77750":{"encoding":"inplace","label":"contract L2ToL1MessagePasser","numberOfBytes":"20"},"t_contract(LegacyMessagePasser)87254":{"encoding":"inplace","label":"contract LegacyMessagePasser","numberOfBytes":"20"},"t_contract(OptimismMintableERC20Factory)92366":{"encoding":"inplace","label":"contract OptimismMintableERC20Factory","numberOfBytes":"20"},"t_contract(OptimismPortal)73496":{"encoding":"inplace","label":"contract OptimismPortal","numberOfBytes":"20"},"t_contract(OptimismPortal2)74418":{"encoding":"inplace","label":"contract OptimismPortal2","numberOfBytes":"20"},"t_contract(ProtocolVersions)74669":{"encoding":"inplace","label":"contract ProtocolVersions","numberOfBytes":"20"},"t_contract(SequencerFeeVault)77792":{"encoding":"inplace","label":"contract SequencerFeeVault","numberOfBytes":"20"},"t_contract(SuperchainConfig)75236":{"encoding":"inplace","label":"contract SuperchainConfig","numberOfBytes":"20"},"t_contract(SystemConfig)76050":{"encoding":"inplace","label":"contract SystemConfig","numberOfBytes":"20"}}},"userdoc":{"version":1,"kind":"user"},"devdoc":{"version":1,"kind":"dev","details":"This contact is responsible for setting up the contracts in state. It currently      sets the L2 contracts directly at the predeploy addresses instead of setting them      up behind proxies. In the future we will migrate to importing the genesis JSON      file that is created to set up the L2 contracts instead of setting them up manually.","methods":{"L1()":{"details":"Sets up the L1 contracts."},"L2()":{"details":"Sets up the L2 contracts. Depends on `L1()` being called first."},"setUp()":{"details":"Deploys the Deploy contract without including its bytecode in the bytecode      of this contract by fetching the bytecode dynamically using `vm.getCode()`.      If the Deploy bytecode is included in this contract, then it will double      the compile time and bloat all of the test contract artifacts since they      will also need to include the bytecode for the Deploy contract.      This is a hack as we are pushing solidity to the edge."}},"title":"Setup"},"id":242}